:020000040800F2
:10000000580900205D040008DD010008DF01000838
:10001000E3010008E7010008EB0100080000000010
:10002000000000000000000000000000EF010008D8
:10003000F101000800000000F3010008F5010008CC
:1000400077040008770400087704000877040008A4
:100050007704000877040008770400087704000894
:10006000813400081F350008770400087704000871
:100070007704000877040008770400087704000874
:100080007704000877040008770400087704000864
:10009000770400087704000877040008F3330008A9
:1000A0007704000877040008770400087704000844
:1000B000B52C0008770400089D2C00087704000880
:1000C0007704000877040008770400087704000824
:1000D0007704000877040008770400087704000814
:1000E000413F0008770400087704000800F002F898
:1000F00000F05FF80AA090E8000C82448344AAF163
:100100000107DA4501D100F054F8AFF2090EBAE860
:100110000F0013F0010F18BFFB1A43F0010318473B
:1001200040B5000060B500000A444FF0000C10F824
:10013000013B13F0070408BF10F8014B1D1108BF65
:1001400010F8015B641E05D010F8016B641E01F805
:10015000016BF9D113F0080F1EBF10F8014BAD1C55
:100160000C1B09D16D1E58BF01F801CBFAD505E073
:1001700014F8016B01F8016B6D1EF9D59142D6D3CD
:10018000704700000023002400250026103A28BFF5
:1001900078C1FBD8520728BF30C148BF0B607047F9
:1001A000642908F02581002070471FB51FBD10B5D8
:1001B00010BD08F0EDFA1146FFF7F7FF00F01CF84C
:1001C00008F00BFB03B4FFF7F2FF03BC02F0E4FA04
:1001D00030BF72B662B680F308887047704700BFC0
:1001E000FEE700BFFEE700BFFEE700BFFEE7704787
:1001F0007047704770470000022002F075F902F066
:1002000003F9022002F05AFA012002F057FA02F034
:1002100093FB02F0CFFB002141F61F4002F034FBBC
:1002200002F080FC02F0CBFC02F058FD02F0E2FD8F
:1002300003F041FB07F0E2FD07F0F4FD03F0A4F842
:1002400003F0E9F803F036F903F068F802F09CFBDC
:100250000FE00848007820B90748007808B903F093
:1002600069FF0448007820B90348007808B103F01A
:100270007CFFEEE758000020590000200CB500205C
:10028000019000906C48006840F480306A49086032
:1002900000BF6948006800F4003000900198401CDD
:1002A0000190009818B90198B0F5A06FF1D162489B
:1002B000006800F4003010B10120009001E000203F
:1002C00000900098012843D15C48006840F010007D
:1002D0005A4908600846006820F003000860084694
:1002E000006840F002000860534840685249486086
:1002F0000846406848600846406840F480604860AE
:100300000846406820F47C1048600846406840F485
:10031000E81048600846006840F08070086000BF40
:100320004548006800F000700028F9D04248406855
:1003300020F00300404948600846406840F0020051
:10034000486000BF3C48406800F00C000828F9D124
:100350000CBD10B5FFF792FF10BD10B53648006810
:1003600040F00100344908600846406834490840BC
:100370003149486008460068324908402E49086003
:100380000846006820F4802008600846406820F491
:10039000FE0048604FF41F008860FFF7DAFF4FF05F
:1003A00000602949086010BD10B50021002000221E
:1003B000214B5B6803F00C0121B1042906D0082908
:1003C00028D107E0214B224C236027E01F4B204C13
:1003D000236023E0184B5B6803F47010164B5B68D6
:1003E00003F48032022303EB904022B9194B4343BC
:1003F000174C23600DE0104B5B6803F4003323B10E
:10040000144B4343124C236003E0104B4343104C06
:10041000236003E00D4B0E4C236000BF00BF064B72
:100420005B68C3F303130C4CE15C094B1B68CB40C6
:10043000074C236010BD0000001002400020024065
:100440000000FFF8FFFFF6FE08ED00E000127A0062
:100450006800002000093D006C000020094880472A
:1004600009480047FEE7FEE7FEE7FEE7FEE7FEE796
:10047000FEE7FEE7FEE7FEE704480549054A064BAE
:10048000704700005B030008ED00000858030020DF
:100490005809002058050020580500203149014323
:1004A000314A1160704770B5002100230F22C478D3
:1004B00004B32D4C246804F4E064C4F5E064210A1C
:1004C000C1F10403CA40447804FA03F1847814406B
:1004D00021430901254C0678A155047804F01F0535
:1004E0000124AC4005786D11AD0005F1E025C5F89B
:1004F000004109E0047804F01F050124AC401C4DC4
:100500000678761145F8264070BD1A4A0A40024323
:10051000154B1B1F1A60704739B1134A121D126820
:100520000243114B1B1D1A6006E00F4A121D126890
:1005300082430D4B1B1D1A607047042808D14FF0F1
:10054000E021096941F004014FF0E022116107E068
:100550004FF0E021096921F004014FF0E022116120
:10056000704700000000FA050CED00E000E400E038
:1005700080E100E080FFFF1F10B50446FA48844286
:1005800008D10121401500F0E3FD0021601500F0C5
:10059000DFFD17E0F548844208D10121001500F085
:1005A000D7FD0021201500F0D3FD0BE0F048844278
:1005B00008D10121C80300F0CBFD00214FF4004019
:1005C00000F0C6FD10BD30B5024600200023506883
:1005D000E84C20400D790C6844EA05242043506023
:1005E0009068E54C2040D1E902542C434D7944EA0F
:1005F000450420439060D06A20F470000C7C641E97
:10060000E4B2234340EA0350D06230BD00210160D0
:10061000017141718160C16001210174704721B194
:10062000826842F00102826003E0826822F00102E7
:100630008260704721B1826842F48072826003E078
:10064000826822F480728260704710B50023CBB2BA
:100650001AB144681C43446002E044689C4344600F
:1006600010BD816841F0080181607047014600209B
:100670008A6802F008020AB1012000E000207047F9
:10068000816841F0040181607047014600208A685A
:1006900002F004020AB1012000E00020704721B1FD
:1006A000826842F4A002826003E0826822F4A00221
:1006B00082607047014600208A6802F480020AB115
:1006C000012000E00020704710B50A4600210023F9
:1006D000416821F46041531E41EA4331416010BD3D
:1006E00021B1426842F40062426003E0426822F4B1
:1006F000006242607047F0B504460D4600200021BC
:10070000092D11DDE068A5F10A0606EB460707266C
:1007100006FA07F18843A5F10A0606EB460603FA36
:1007200006F10843E0600CE0206905EB4507072669
:1007300006FA07F1884305EB450603FA06F108437C
:100740002061072A0FDA606B561E06EB86071F260C
:1007500006FA07F18843561E06EB860605FA06F1EF
:100760000843606322E00D2A0FDA206BD61F06EBE8
:1007700086071F2606FA07F18843D61F06EB860672
:1007800005FA06F10843206310E0E06AA2F10D06C5
:1007900006EB86071F2606FA07F18843A2F10D062D
:1007A00006EB860605FA06F10843E062F0BD21B1CA
:1007B000826842F48012826003E0826822F4801230
:1007C000826070470146C86C80B2704766484C3002
:1007D0000068704721B1426842F48062426003E0E1
:1007E000426822F480624260704721B1426842F45C
:1007F0008052426003E0426822F4805242607047B7
:100800000A460021816821F4E0411143816070476C
:1008100021B1826842F40042826003E0826822F4DF
:1008200000428260704721B1826842F40212826005
:1008300003E0826822F402128260704701460020C1
:100840008A6802F400120AB1012000E0002070471B
:10085000F0B504461546002000220026092911DDC6
:10086000E068A1F10A0707EB470C072707FA0CF22B
:100870009043A1F10A0707EB470703FA07F2104379
:10088000E0600CE0206901EB410C072707FA0CF24D
:10089000904301EB410703FA07F210432061A06B7C
:1008A000C0F30156EF1C06F1010CA7EB0C0707EB98
:1008B000870C1F2707FA0CF29043EF1C06F1010C7E
:1008C000A7EB0C0707EB870701FA07F21043A063B9
:1008D000F0BD10B50A4600210023816B21F44011C0
:1008E000531E41EA0351816310BD08B500230093F4
:1008F0000090009B0B440093009B1A6008BD08B554
:10090000024600200090009201F12800009B18444C
:1009100000900098006880B208BD0A460021416836
:10092000164B194011434160704741628262704723
:100930000A460021416821F01F01114341607047C0
:1009400040B109490831096841F40001064A0832FA
:10095000116007E004490831096821F40001024AE6
:100960000832116070470000002401400028014057
:10097000003C0140FFFEF0FFFDF7F1FFFFFD3FFFF0
:100980000246002013680B400BB1012000E000205C
:100990007047CA430260704770B5024600200023CA
:1009A00000240B125568CEB205EA060415681D40F6
:1009B00015B10CB1012000E0002070BD00220A1228
:1009C000D343036070470000002044490860091DBC
:1009D0000860091D0860091D086041483F4914313D
:1009E0000860704700213D498279002A3AD00A46C2
:1009F000126803689A430B461A600A1D126803685E
:100A00009A430B1D1A60027911440A6803681A435D
:100A10000A60324A0832126803689A432F4B08333F
:100A20001A601A1D126803689A432C4B0C331A6023
:100A30004279102A0ED11A1F126803681A43274BF5
:100A400008331A601A1D126803681A43234B0C33CB
:100A50001A600DE02149427911440A6803681A437B
:100A60000A6005E0027911440A6803689A430A6043
:100A700070470021016001710C21417100218171D9
:100A800070471649103109680143144A1032116049
:100A9000704701460020114A143212680A400AB118
:100AA000012000E0002070470C49143108607047B5
:100AB000014600200022094B1B6803EA0102074B94
:100AC00014331B680B4013B10AB1012000E0002071
:100AD000704702491431086070470000000401406B
:100AE000FFFF0F0010B50446CC48844208D1012115
:100AF000042000F02DFB0021042000F029FB46E03B
:100B0000C748844208D10121082000F021FB0021C0
:100B1000082000F01DFB3AE0C248844208D10121C0
:100B2000102000F015FB0021102000F011FB2EE03A
:100B3000BD48844208D10121202000F009FB00219A
:100B4000202000F005FB22E0B848844208D10121B2
:100B5000402000F0FDFA0021402000F0F9FA16E0F4
:100B6000B348844208D10121802000F0F1FA00212D
:100B7000802000F0EDFA0AE0AE48844207D101215E
:100B8000801500F0E5FA0021A01500F0E1FA10BD93
:100B900010B50121084600F0DBFA0021012000F029
:100BA000D7FA10BD2DE9F0410246002500260020AD
:100BB00000230024002791F803C00CF00F0591F8E2
:100BC00003C00CF0100CBCF1000F03D091F802C070
:100BD0004CEA050591F800C0BCF1000F31D0146853
:100BE00000202BE04FF0010C0CFA00F3B1F800C02C
:100BF0000CEA03069E4220D183004FF00F0C0CFA42
:100C000003F7BC4305FA03FC4CEA040491F803C063
:100C1000BCF1280F06D14FF0010C0CFA00FCC2F811
:100C200014C00AE091F803C0BCF1480F05D14FF0A1
:100C3000010C0CFA00FCC2F810C0401C0828D1D3EB
:100C40001460B1F800C0BCF1FF0F34DD546800201F
:100C50002EE000F1080C4FF0010808FA0CF3B1F88F
:100C600000C00CEA03069E4221D183004FF00F0C16
:100C70000CFA03F7BC4305FA03FC4CEA040491F8B0
:100C800003C0BCF1280F05D100F1080C08FA0CF8DC
:100C9000C2F8148091F803C0BCF1480F07D100F1ED
:100CA000080C4FF0010808FA0CF8C2F81080401C3C
:100CB0000828CED35460BDE8F0814FF6FF71018063
:100CC000022181700421C1707047024600209368A0
:100CD0000B400BB1012000E00020704701468868FE
:100CE00080B2704702460020D3680B400BB1012050
:100CF00000E0002070470146C86880B2704701617B
:100D00007047416170470AB1016100E0416170477D
:100D1000C16070474FF480320A4382618161826111
:100D200082698269704702460020434B18684FF67B
:100D30008073184040EA021008433F4B1860704728
:100D40003E49C8617047F0B50A46002300240021DF
:100D5000002500F00046B6F1004F02D1364EF16991
:100D600001E0354E7168C0F3034583B200F44016CC
:100D7000B6F5401F08D121F070612F4E766826F03D
:100D800070662D4F7E6012E000F48016B6F5801F6D
:100D900006D1032606FA05F4A14341F0706106E08E
:100DA000460D360103FA06F6B14341F0706122B1F7
:100DB000460D360103FA06F6314300F00046B6F15F
:100DC000004F02D11C4EF16101E01B4E7160F0BD7D
:100DD00030B500228B071C0F0F2303FA04F2164BC9
:100DE00008338C1053F824309343134C08348D107F
:100DF00044F8253023468C1053F824308C07240FF8
:100E000000FA04F423430C4C08348D1044F82530C8
:100E100030BD0A49DC31086070470000000801401D
:100E2000000C014000100140001401400018014076
:100E3000001C014000200140000001400000204251
:100E4000DF48006840F00100DD490860084640685E
:100E5000DC490840DA49486008460068DA49084039
:100E6000D74908600846006820F4802008600846DA
:100E7000406820F4FE0048604FF41F00886070470F
:100E8000CF49096821F48031CD4A116011460968C3
:100E900021F480211160B0F5803F03D0B0F5802FA0
:100EA0000ED106E0C649096841F48031C44A116098
:100EB00007E0C349096841F4A021C14A116000E07C
:100EC00000BF00BF704710B501460022002300207C
:100ED0004A11012A02D1BA4C236806E0022A02D143
:100EE000B74C236A01E0B64C636A01F01F0201248B
:100EF00094401C400CB1012000E0002010BD38B52A
:100F0000002000900024002500BF3120FFF7DBFF08
:100F100005460098401C00900098B0F5A06F01D0E5
:100F2000002DF2D03120FFF7CEFF08B1012400E000
:100F30000024204638BD01460020A14A106820F058
:100F4000F80040EAC10010607047A049086070478F
:100F5000024600209A4B586820F47C1042EA0103B4
:100F60001843974B58607047984908667047014688
:100F70000020934A506820F00300084350607047F7
:100F80008F48406800F00C007047014600208C4AF2
:100F9000506820F0F0000843506070470146002080
:100FA000874A506820F4E06008435060704701466B
:100FB0000020834A506820F4605040EAC10050602D
:100FC000704729B17E4A527A02437D4B5A7204E03F
:100FD0007B4A527A82437A4B5A7270477B49D831A6
:100FE0000860704701460020754A506820F4404070
:100FF0000843506070470021714A20321170704AD6
:1010000082F82010012802D004280AD104E001212E
:101010006B4A2032117005E00521694A20321170B7
:1010200000E000BF00BF704769490860704764492D
:10103000096A0143624A1162704765494439086090
:10104000704730B500210022002400235C4D6D68FC
:1010500005F00C0121B1042905D0082923D105E0B0
:101060005C4D056022E05B4D05601FE0544D6D68EE
:1010700005F47012524D6D6805F48034022505EBBD
:1010800092421CB9544D554305600BE04C4D6D68C0
:1010900005F400351DB1504D5543056002E04D4D3E
:1010A0005543056002E04B4D056000BF00BF444D55
:1010B0006D6805F0F0010909484D6B5C0568DD407D
:1010C00045603F4D6D6805F4E061090A434D6B5C76
:1010D0004568DD4085603A4D6D6805F46051C90A88
:1010E0003E4D6B5C4568DD40C560354D6D6805F46F
:1010F0004041890B3A4D6B5CC568B5FBF3F5056162
:1011000030BD29B12E4A526902432D4B5A6104E089
:101110002B4A526982432A4B5A61704729B1284AA7
:1011200092690243264B9A6104E0254A9269824300
:10113000234B9A61704729B1214AD2690243204B5F
:10114000DA6104E01E4AD26982431D4BDA617047BE
:1011500029B11B4AD2680243194BDA6004E0184AED
:10116000D2688243164BDA60704729B1144A12697B
:101170000243134B1A6104E0114A12698243104B77
:101180001A61704712494039086070470F49C864B6
:1011900070470B49C87170470948406A40F0807039
:1011A00007494862704701460020054A92680A4094
:1011B0000AB1012000E000207047014988727047A1
:1011C000001002400000FFF8FFFFF6FE0000424260
:1011D0008004424200127A0000093D007C00002099
:1011E0008C00002010B50446FE48844208D101213D
:1011F000C014FFF7ADFF0021E014FFF7A9FFC4E022
:10120000B4F1804F08D101210846FFF7AEFF00215D
:101210000120FFF7AAFFB8E0F348844208D101217A
:101220000220FFF7A2FF00210220FFF79EFFACE0A3
:10123000EE48844208D101210420FFF796FF0021E7
:101240000420FFF792FFA0E0E948844208D1012181
:101250000820FFF78AFF00210820FFF786FF94E0AF
:10126000E448844208D101211020FFF77EFF0021CD
:101270001020FFF77AFF88E0DF48844208D101217F
:101280002020FFF772FF00212020FFF76EFF7CE097
:10129000DA48844208D101214014FFF759FF0021A8
:1012A0006014FFF755FF70E0D548844209D1012151
:1012B000C804FFF74DFF00214FF40020FFF748FF5F
:1012C00063E0D048844209D101210805FFF740FFBF
:1012D00000214FF48010FFF73BFF56E0CA488442DC
:1012E00009D101214805FFF733FF00214FF4001019
:1012F000FFF72EFF49E0C548844208D10121402074
:10130000FFF733FF00214020FFF72FFF3DE0C048EB
:10131000844208D101218020FFF727FF002180208F
:10132000FFF723FF31E0BB48844208D1012180153B
:10133000FFF71BFF0021A015FFF717FF25E0B648B8
:10134000844209D101210804FFF702FF00214FF474
:101350008030FFF7FDFE18E0B048844209D101213A
:101360004804FFF7F5FE00214FF40030FFF7F0FED0
:101370000BE0AB48844208D101218804FFF7E8FE66
:1013800000214FF48020FFF7E3FE10BD0022028809
:10139000944B98420ED0994B98420BD0B0F1804FAD
:1013A00008D0914B984205D0904B984202D0904B78
:1013B000984204D14FF68F731A404B881A438D4BD5
:1013C000984207D08C4B984204D04FF6FF431A4006
:1013D000CB881A4302808B8883850B880385814BD9
:1013E00098420BD0854B984208D08B4B984205D041
:1013F0008A4B984202D08A4B984201D10B7A0386DD
:1014000001238382704770B5002400220023058CDD
:101410004FF6FE7635400584028C8388048B4FF6A8
:101420008F752C40B51E2C400D882C43751E2A400C
:101430000D892A434D882A436A4DA8420BD06F4D2F
:10144000A84208D0744DA84205D0744DA84202D0DD
:10145000734DA84213D14FF6F7752A404D892A43A0
:101460004FF6FB752A408D882A434FF6FF652B40C7
:101470004FF6FF552B408D892B43CD892B4383801D
:101480000483CD888586028470BD70B50024002257
:101490000023058C4FF6EF7635400584028C838857
:1014A000048B48F6FF752C404FF6FF452C400D8805
:1014B0004FF6FF7606EA05252C434FF6DF752A40E6
:1014C0000D8906EA05152A434D8806EA05152A43C3
:1014D000444DA84202D0494DA8421DD14FF67F7518
:1014E0002A404D894FF6FF7606EA05152A434FF646
:1014F000BF752A408D8806EA05152A434FF6FF3549
:101500002B404FF2FF752B408D8906EA85052B4352
:10151000CD8906EA85052B4383800483CD88058722
:10152000028470BD70B5002400220023058C4FF6A4
:10153000FF6635400584028C8388848B4FF68F7557
:101540002C404FF6FC752C400D882C434FF6FF5570
:101550002A400D894FF6FF7606EA05252A434D8875
:1015600006EA05252A431F4DA84202D0234DA84272
:101570001DD14FF2FF752A404D894FF6FF7606EADE
:1015800005252A434FF6FF352A408D8806EA0525B2
:101590002A434EF6FF752B404DF6FF752B408D8983
:1015A00006EA05152B43CD8906EA05152B438380F2
:1015B0008483CD888587028470BD70B500220023A6
:1015C0000024058C4EF6FF7635400584038C848814
:1015D000828B48F6FF752A404FF6FF452A400D885A
:1015E00020E00000002C0140000400400008004002
:1015F000000C004000100040001400400034014086
:10160000004C0140005001400054014000180040CF
:10161000001C004000200040004001400044014008
:10162000004801404FF6FF7606EA05252A434DF6AD
:10163000FF752B400D8906EA05352B434D8806EAD8
:1016400005352B43FA4DA84202D0FA4DA84208D1E5
:101650004BF6FF752C408D894FF6FF7606EA85150F
:101660002C4384808283CD88A0F84050038470BDD1
:10167000828B4FF2FF331A408283828B4FF6FF73C7
:1016800003EA01231A4382837047F0B50C461546DE
:10169000002200210026078C4EF6FF7C07EA0C078B
:1016A0000784828B018C4FF6FF7707EA043640F6F9
:1016B000FF473A404FF6FF7707EA05273A434FF6D0
:1016C000FF7707EA03373A43D94FB8420ED0D94FD4
:1016D000B8420BD0B0F1804F08D0D74FB84205D0F8
:1016E000D64FB84202D0D64FB84206D14DF6FF775A
:1016F000394046F48057394305E047F6FF573940F3
:1017000044F48057394382830184F0BD828B4FF6C5
:10171000F3731A408283828B0A4382837047F0B549
:101720000C461546002200210026078C4FF6FF6C60
:1017300007EA0C070784828B018C4FF6FF7707EAD4
:1017400004264FF60C773A404FF6FF7707EA031767
:101750002F433A43B64FB8420ED0B64FB8420BD0E3
:10176000B0F1804F08D0B44FB84205D0B34FB84263
:1017700002D0B34FB84206D14FF6FF57394046F476
:101780008077394305E04FF2FF57394044F48077C2
:10179000394382830184F0BD028B4FF2FF331A403C
:1017A0000283028B4FF6FF7303EA01231A4302837D
:1017B0007047F0B50C461546002200210026078C24
:1017C0004FF6EF7C07EA0C070784028B018C4FF67B
:1017D000FF7707EA041640F6FF473A404FF6FF77D7
:1017E00007EA03373A434FF6FF7707EA05273A43FC
:1017F0008F4FB8420ED08F4FB8420BD0B0F1804F10
:1018000008D08D4FB84205D08C4FB84202D08C4FD3
:10181000B84206D14FF6DF77394046F0100739431A
:1018200005E04FF65F77394044F0100739430283F3
:101830000184F0BD028B4FF6F3731A400283028BD2
:101840000A4302837047F0B50C461546002200217A
:10185000068C4FF6FE773E400684028B018C4FF6D5
:101860000C7632407E1C06EA03162E433243704E3D
:10187000B0420ED06F4EB0420BD0B0F1804F08D0C6
:101880006D4EB04205D06D4EB04202D06C4EB042AB
:1018900006D14FF6FD76314044F00106314305E0B4
:1018A0004FF6F576314044F001063143028301845E
:1018B000F0BD70B505460C465D4885420ED05D48CA
:1018C00085420BD0B5F1804F08D05B48854205D0EA
:1018D0005A48854202D05A48854200D100E000BFF4
:1018E000208850B92389A28861882846FFF7ABFF7A
:1018F000E1882846FFF79EFF25E0208804280AD1CA
:101900002389A28861882846FFF753FFE18828468B
:10191000FFF742FF17E0208808280AD12389A28810
:1019200061882846FFF7FBFEE1882846FFF7EEFEB8
:1019300009E02389A28861882846FFF7A6FEE1888E
:101940002846FFF795FE70BD2DE9F04105460C468F
:1019500000260127608808B9022600E00026A0883A
:10196000012801D1022700E001272088A0B923899E
:10197000A28861882846FFF766FFE1882846FFF7BE
:1019800059FF23893A4631462846FFF712FFE1887E
:101990002846FFF701FF13E02389A28861882846C3
:1019A000FFF707FFE1882846FFF7F6FE23893A464E
:1019B00031462846FFF747FFE1882846FFF73AFF00
:1019C000BDE8F0810A884B881A438B881A43CB887C
:1019D0001A430B891A434B891A438B891A43A0F87F
:1019E000442070474FF6FF71818000210180C18043
:1019F0004180017270470021018041808180C18057
:101A0000018141818181C181704700210180418034
:101A1000012181800021C180018170470021018066
:101A200041808180C18001814181818170470000B6
:101A3000002C014000340140000400400008004038
:101A4000000C004021B1028842F00102028004E053
:101A500002884FF6FE731A400280704731B1B0F829
:101A6000442042F40042A0F8442005E0B0F84420AD
:101A7000C2F30E02A0F8442070471AB183890B43C9
:101A8000838102E083898B43838170478182704721
:101A900041EA0203A0F8483070471AB183890B432A
:101AA000838102E083898B438381704701894FF6EC
:101AB000F8721140018170470A46002101894FF6F2
:101AC0008F73194011430181704730B504460D46AC
:101AD00029462046FFF7F0FF208940F007002081CB
:101AE00030BD2DE9F04104460D4616461F46602DD7
:101AF00006D13B46012231462046FFF75AFE05E05B
:101B00003B46012231462046FFF79DFE29462046EE
:101B1000FFF7D2FF208940F007002081BDE8F08167
:101B200030B50C4600210189C9B24FF6FF7505EAB0
:101B30000325154325432943018130BD2DE9F0419B
:101B400005460E4617469846002443463A46314617
:101B50002846FFF7E5FF2C894FF6F870044044F063
:101B600007044FF68F70044044F070042C81BDE8E8
:101B7000F081F0B504460D4616461F463B463246F8
:101B800029462046FFF7CCFF208940F48040208181
:101B9000F0BD0185828270470A46002101884FF618
:101BA0008F731940114301807047F0B50C461546FC
:101BB0001E460021002200230189028B038C4FF670
:101BC000F877394021434FF6FC473A4040F201177D
:101BD0003A434FF6DD773B404FF6FF7707EA0617AB
:101BE0002F433B43018102830384F0BD0A46002159
:101BF000018B4FF68F7319401143018370470A46DA
:101C00000021018B48F6FF7319404FF6FF7303EA7A
:101C100002231943018370470A460021818B4FF646
:101C20008F7319401143818370470A460021818BCD
:101C300048F6FF7319404FF6FF7303EA0223194376
:101C40008183704721B1028842F08002028004E063
:101C500002884FF67F731A400280704721B1828854
:101C600042F00402828004E082884FF6FB731A403F
:101C70008280704721B1828842F00802828004E0AD
:101C800082884FF6F7731A408280704721B18288AC
:101C900042F00102828004E082884FF6FE731A400F
:101CA000828070470A460021018B4FF6F773194076
:101CB0001143018370470A460021018B4FF2FF73E5
:101CC00019404FF6FF7303EA02231943018370475B
:101CD0000A460021818B4FF6F77319401143818327
:101CE00070470A460021818B4FF2FF7319404FF66F
:101CF000FF7303EA02231943818370470A460021D8
:101D0000018B4FF6FB7319401143018370470A465C
:101D10000021018B4FF6FF3319404FF6FF7303EAA2
:101D200002231943018370470A460021818B4FF635
:101D3000FB7319401143818370470A460021818B50
:101D40004FF6FF3319404FF6FF7303EA022319439E
:101D5000818370470A460021018B4FF67F7319403B
:101D60001143018370470A460021018BC1F30E0124
:101D70004FF6FF7303EA02231943018370470A46B3
:101D80000021818B4FF67F73194011438183704787
:101D90000A460021818BC1F30E014FF6FF7303EA5F
:101DA00002231943818370470A460021018C4FF6B4
:101DB000FD7319401143018470470A460021018CCC
:101DC0004FF6F77319401143018470470A4600210A
:101DD000018C4FF6DF7319404FF6FF7303EA0213CD
:101DE0001943018470470A460021018C4FF67F7326
:101DF00019404FF6FF7303EA021319430184704739
:101E00000A460021018C4FF6FF5319404FF6FF732D
:101E100003EA02231943018470470A460021018C1A
:101E20004FF2FF7319404FF6FF7303EA0223194381
:101E3000018470470A460021018C4DF6FF7319405A
:101E40004FF6FF7303EA023319430184704730B53C
:101E5000002301248C40A3B2048C9C430484048C92
:101E600002FA01F5ADB22C43048430BD30B5002335
:101E700004248C40A3B2048C9C430484048C02FA96
:101E800001F5ADB22C43048430BD70B5034600208B
:101E900000241846183001258D40ACB21D8CA54396
:101EA0001D8409B1082909D100EB6100056825F0FE
:101EB000700505600568154305600EE00D1FC5F34C
:101EC0004E052844056825F4E045056005684FF691
:101ED000FF7606EA02263543056070BD21B102880F
:101EE00042F00202028004E002884FF6FD731A40BD
:101EF0000280704721B1028842F00402028004E0AF
:101F000002884FF6FB731A400280704721B1828825
:101F100042F08002828004E082884FF67F731A408C
:101F20008280704702884FF6F7731A400280028859
:101F30000A430280704782884FF68F731A4082806E
:101F400082880A438280704702894FF6F8731A40EC
:101F5000028102890A430281704702894FF67F732A
:101F60001A40028102890A430281704781847047C6
:101F700081857047818670470187704781877047E8
:101F8000A0F84010704702884FF6FF431A400280C5
:101F900002880A43028070470146888E70470146D6
:101FA000088F70470146888F70470146B1F840009E
:101FB00070470146888C70470146088D704702467D
:101FC0000020138A0B400BB1012000E00020704775
:101FD000CA430282704730B5024600200023002425
:101FE000158A05EA0103958905EA010413B10CB1CC
:101FF000012000E0002030BDCA430282704700008B
:1020000010B50446FB48844209D101218803FFF73B
:102010009FF800214FF48040FFF79AF832E0F6482D
:10202000844209D101214804FFF79FF800214FF4B1
:102030000030FFF79AF825E0F048844209D10121E9
:102040008804FFF792F800214FF48020FFF78DF805
:1020500018E0EB48844209D10121C804FFF785F854
:1020600000214FF40020FFF780F80BE0E5488442A0
:1020700008D101210805FFF778F800214FF48010FE
:10208000FFF773F810BD2DE9F04786B005460E4600
:102090000024A24600BFA1460027B08900B100BFBE
:1020A0002F462C8A4CF6FF700440F08804432C82A3
:1020B000AC894EF6F3100440B08831890843718929
:1020C00008430443AC81AC8A4FF6FF400440B0891A
:1020D0000443AC8201A8FEF7B4FFC648874202D190
:1020E000DDF810A001E0DDF80CA0A88900F40040A4
:1020F00040B10AEBCA0000EB0A1031684900B0FB9E
:10210000F1F807E00AEBCA0000EB0A103168890019
:10211000B0FBF1F86420B8FBF0F004012009642161
:1021200001FB1089A88900F4004040B1322000EB87
:10213000C900B0FBF1F000F00700044308E03220D2
:1021400000EB09106421B0FBF1F000F00F00044334
:102150002C8106B0BDE8F0874FF4165101600021D4
:102160008180C18001810C214181002181817047E2
:1021700010B502460020108A4FF2FF0318400B886A
:102180004C8823438C882343CC88234318431082F4
:1021900010BD0021018041808180C180704721B144
:1021A000828942F40052828104E082894DF6FF73F5
:1021B0001A4082817047F0B50346002400260025AE
:1021C000002040F66A17B94200D100BF1846C1F39B
:1021D000421401F01F06012707FA06F5012C01D170
:1021E0000C3004E0022C01D1103000E014301AB1A0
:1021F00007682F43076002E00768AF430760F0BD40
:102200001AB1838A0B43838202E0838A8B438382E1
:102210007047028A4FF6F0731A400282028A0A431C
:102220000282704782894FF2FF731A40828182894D
:102230000A438281704721B1828942F00202828181
:1022400004E082894FF6FD731A4082817047028A4A
:102250004FF6DF731A400282028A0A4302827047F5
:1022600021B1028A42F48042028204E0028A4BF6E3
:10227000FF731A4002827047C1F3080282807047E0
:1022800001468888C0F308007047818941F0010148
:1022900081817047028BD2B20283028B42EA012213
:1022A00002837047028B02F47F420283028B0A434F
:1022B0000283704721B1828A42F02002828204E0C8
:1022C000828A4FF6DF731A408282704721B1828A78
:1022D00042F01002828204E0828A4FF6EF731A40C5
:1022E0008282704721B1828A42F00802828204E031
:1022F000828A4FF6F7731A408282704721B1828931
:1023000042F40042828103E08289C2F30E0282819C
:10231000704721B1828A42F40062828204E0828A9C
:102320004FF2FF731A4082827047828A4FF6FB7326
:102330001A408282828A0A438282704721B1828A4D
:1023400042F00202828204E0828A4FF6FD731A4054
:102350008282704702460020B1F5007F00D100BFA5
:1023600013880B400BB1012000E00020704701F4FE
:102370000072B2F5007F00D100BFCA4302807047EF
:1023800070B50246002400230025002040F66A169E
:10239000B14200D100BFC1F3421501F01F03012675
:1023A00006FA03F3012D02D19689334006E0022D8F
:1023B00002D1168A334001E0968A33400C1201267E
:1023C00006FA04F41688344013B10CB1012000E081
:1023D000002070BD10B50022002340F66A14A1420F
:1023E00000D100BF0A1201249440A3B2DC43048050
:1023F00010BD00000038014000440040004800408B
:10240000004C00400050004010B56FF00400FEF793
:1024100094F82E4800682E49B0FBF1F02D49087061
:102420000846007800EB4001C1EBC0104FF6FF7189
:1024300001EAC0002849088010BD0146254A1278EB
:102440004A434FF0E0235A6100229A611A4612690A
:1024500042F001021A6100BF4FF0E022106900F063
:1024600001021AB100F48032002AF5D04FF0E022C8
:10247000126922F001024FF0E0231A6100229A61F2
:1024800070470146144A12884A434FF0E0235A61CC
:1024900000229A611A46126942F001021A6100BFD5
:1024A0004FF0E022106900F001021AB100F480320E
:1024B000002AF5D04FF0E022126922F001024FF01D
:1024C000E0231A6100229A61704700006800002032
:1024D00000127A009000002092000020A34A0A40D7
:1024E0000243A34B1A6070470146072323EA010207
:1024F00012029F4B1B1D18684FF6FF0318409D4B9F
:10250000184310439A4B1B1D186070472DE9F0418A
:102510000746884614461D462846FFF7E5FFC5F1E5
:10252000040007FA00F60F20284100EA08000643DD
:1025300006F00F06E21704EBD2625211920002F18C
:10254000E022D2F800212146E31704EBD3635B11AC
:10255000A4EB431C012303FA0CF31A432046E317B0
:1025600004EBD3635B119B0003F1E023C3F800216C
:102570008148005D40EA06107F490855BDE8F081BA
:1025800070B504460B46CE1701EB9676C6F387006E
:10259000CE1701EB9676B610A1EB8606B606350E81
:1025A000764B9B6943F00103744EB3614FEAB63337
:1025B00053F820300F26AE40B343714E46F820301A
:1025C000334653F8203004FA05F61E436C4B43F8AB
:1025D00020606C4B1B6801268E403343694E33608C
:1025E00002F0010343B1674B0C331B6801268E4098
:1025F0003343644E0C36336002F0020343B1614B47
:1026000008331E6801238B401E435E4B08331E6057
:1026100070BD00B5002059490861C86014204861A8
:1026200000208861C8610846006840F00100086029
:1026300008464068544908405049486008460068C8
:10264000524908404D4908600846006820F480203F
:1026500008600846406820F4FE004860002088605A
:1026600000214FF00060FFF739FF00BD10B5404872
:102670000830006840F004003D49083108603F48D8
:10268000C06940F080503D49C8614148406840F40D
:1026900080703F4948600846006840F004000860C8
:1026A0000846006840F002000860FDF791FD10BD8B
:1026B0003048001D2E49091D086070470146490633
:1026C0002E4A926942F001022C4B9A612C4A083A38
:1026D000526822F0E0622A4B083B5A601A46526860
:1026E0000A435A60704730B504460025FFF791FF52
:1026F0002248006840F480302049086000BF1F482D
:102700000068400C0028FAD04FF480601B494860F4
:10271000A01EC4B20846406840EA844048600846AB
:10272000406840F4803048601A48006840F0320049
:10273000184908601148006840F080700F4908602F
:1027400000BF0E480068400E0028FAD00B484068D1
:1027500040F002000949486005E008484068C0F3BD
:10276000870505F00305022DF7D130BD80FFFF1F5F
:1027700008ED00E00000FA0500E400E0001002406F
:1027800008000140000401400000FFF8FFFFF6FED2
:10279000007000400020024000BF70472C4A1278B1
:1027A0005AB900BF2B4A128802F04002002AF9D021
:1027B000C2B2284B1B1D1A800AE000BF264A1288AD
:1027C00002F04002002AF9D0C2B2234B1B1D1A802E
:1027D000704710B586B00446012144F20400FEF7AC
:1027E0009DFC4FF40070ADF8140003208DF8160026
:1027F00018208DF8170005A91848FEF7D3F94FF4F3
:102800008060ADF8140004208DF8170005A9134866
:10281000FEF7C8F901940020ADF80800ADF80A00F1
:10282000ADF80C00ADF810000C20ADF80E0001A9B9
:102830000948FFF728FC002240F225510648FFF71F
:10284000BAFC01210448FFF7AAFC06B010BD000045
:102850000700002000480040003801400008014007
:1028600008B501210820FEF759FC4FF47040ADF87F
:10287000000010208DF8030003208DF80200694647
:102880002A48FEF78FF908BD30B589B005460C46D9
:10289000FFF7E6FF0121C802FEF740FC01210420FA
:1028A000FEF73CFC4FF41060ADF8200018208DF8C6
:1028B000230003208DF8220008A91D48FEF772F9B5
:1028C000ADF81850ADF814400020ADF81A00ADF87E
:1028D000160005A91748FEF759FD6020ADF8040061
:1028E0000120ADF806000020ADF80A00ADF80C009C
:1028F00001A91048FEF787FD01A90E48FEF75DFE0D
:1029000001210C48FFF7AAF808210A48FFF7CAF985
:1029100008210848FFF7E5F901210648FFF792F979
:1029200001210448FFF78EF809B030BD000C0140CA
:1029300000080140002C014008B501210420FEF7E9
:10294000EDFB1020ADF800008DF8030003208DF89A
:10295000020069461348FEF725F908BD18B90021A1
:10296000114A11600FE011490968491C0F4A1160B2
:10297000814208D10C490968C9430D4AC2F8901137
:1029800000210A4A1160704710B5002407E01021A9
:102990000448FEF7B4F9C820FFF773FD641C032C4C
:1029A000F5DB10BD00080140900121429800002095
:1029B0000000214208B501210420FEF7AFFB2020D2
:1029C000ADF8000048208DF8030069464B48FEF73B
:1029D000E9F808BD01464A48006828B94948008816
:1029E000401C484A108002E00020464A10804448BB
:1029F000006828B94448007810B90120424A107094
:102A000042480078B0B940480078012807D14048D2
:102A10000078401C3E4A107001203C4A10703C482F
:102A20000078022806D10020394A1070394A1080F7
:102A30000220704732480068012804D10020324A41
:102A40001070324A10703248007801281CD1314889
:102A50000088401C2F4A10801046008888420ADDFA
:102A600028480088884206DA0020294A1070294A3E
:102A700010800120DDE723480088884204DD002023
:102A8000234A1070234A10800020D2E722480078A1
:102A900038B11B48006820B900201F490870012088
:102AA000704717480068012801D11B4908700020B1
:102AB000F6E71A48008840B91148006828B9184854
:102AC0000088401C1649088002E000201449088054
:102AD00013480088C82807DD01201049088000201D
:102AE0000F490880012070470C480088012802D156
:102AF00000200A4908800020F5E700000008014096
:102B000014012142A20000209C0000209D00002012
:102B10009E000020A0000020A4000020A8000020AB
:102B2000A600002000B587B001210846FEF703FB90
:102B300001210420FEF7F2FA0320ADF80000042082
:102B40008DF8030069466148FEF72CF804A8FEF7EB
:102B500049FF0020ADF810004FF6FF70ADF81400EB
:102B60000020ADF81600ADF8120004A94FF0804027
:102B7000FEF70CFC00231A4603214FF08040FFF7BC
:102B800014F801A8FEF741FF0A20ADF80C0001A9D6
:102B90004007FEF78EFE01218807FFF719FA012290
:102BA00011469007FEF769FF00214FF08040FFF7C4
:102BB000DDF901218807FEF745FF07B000BD00B52C
:102BC00087B001210420FEF7B6FA01210820FEF7A4
:102BD000A5FAC020ADF8000004208DF80300694676
:102BE0003B48FDF7DFFF04A8FEF7FCFE0020ADF830
:102BF00010004FF6FF70ADF814000020ADF816007D
:102C0000ADF8120004A93348FEF7C0FB00231A46B2
:102C100003213048FEF7C9FF01A8FEF7F6FE0A209F
:102C2000ADF80C0001A92B48FEF743FE012129480D
:102C3000FFF7CEF9012211462648FEF71EFF0021BC
:102C40002448FFF793F901212248FEF7FBFE07B065
:102C500000BD0146022904D003290BD0042919D153
:102C60000FE04FF08042928C10B200224FF0804370
:102C70009A8411E0184A128810B20022164B1A806A
:102C80000AE0144A2432128810B20022114B243375
:102C90001A8001E0002000BF00BF70470D481030CF
:102CA00000880C481030008820F0010009491031DC
:102CB000088070474FF08040008A4FF08040008AC3
:102CC00020F001004FF08041088270470008014069
:102CD000000C0140000800402404004000B587B00B
:102CE00001214FF40170FEF719FA4FF40040FEF78E
:102CF00079F94020ADF8040000208DF8070001A903
:102D00003648FDF74FFF3648FDF736FC00200290AD
:102D10008DF80C008DF80D004FF460200490002019
:102D2000059001208DF8180002A92D48FDF74BFCF5
:102D300001212B48FDF773FC2948FDF792FC00BFE9
:102D40002748FDF793FC0028FAD12548FDF798FCA9
:102D500000BF2348FDF799FC0028FAD107B000BD59
:102D600010B504460723012221461D48FDF7C3FC88
:102D700001211B48FDF793FC00BF02211848FDF715
:102D8000FFFD0028F9D01648FDF71CFD10BD2DE908
:102D9000F04F85B00620FFF7E3FF019006F039FB06
:102DA0004FF066320F4BCDE9020106F045FB80463D
:102DB00000220D4B06F040FB064600220B4B06F0AE
:102DC0003BFB044600220A4B06F09CF9824606F0C3
:102DD000F1FA0490049805B0BDE8F08F00080140B6
:102DE0000024014066660A40000026400000594069
:102DF0000000B04008B501210820FEF78FF94FF41C
:102E00004070ADF8000010208DF8030003208DF80D
:102E100002006946F748FDF7C5FE08BD10B5F54844
:102E2000001D006820F0F000F249091D0860084606
:102E3000006840F0300008600120EF490860EF486A
:102E4000D0F8240108B9002010BD0120EA49091F6B
:102E50000860FFF7F2FA0020E849C1F8A401E6484B
:102E60008038006808B10020EEE70120FFF7E5FA9E
:102E70000020E149091F08600120E5E710B5DD48A1
:102E8000001D006820F0F000DA49091D08600846BE
:102E9000006840F0300008600020D749091F086032
:102EA000D649C1F8A4010120FFF7C7FA0120D24991
:102EB000091F0860D149C1F8A401FFF7BEFA10BD8F
:102EC00010B50024CB48001D006820F0F000C9496F
:102ED000091D08600846006840F080000860012075
:102EE000C5490860FFF7A9FA0120C449C1F8A0014B
:102EF000FFF7A3FA0AE0601CC4B2322C03DDFFF72F
:102F0000BDFF002010BD0120FFF797FABA488038B6
:102F100000680028EFD1B849091F08600120F1E7D7
:102F200010B50020B449091F0860B248001D0068B0
:102F300020F0F000AF49091D08600846006840F025
:102F4000300008600020AD49C1F8A4010120FFF75E
:102F500074FA0120A849091F0860FFF76EFA0020E3
:102F6000A649C1F8A00110BD10B50020A249091F53
:102F70000860A048001D006820F0F0009D49091D70
:102F800008600846006840F03000086001209B4956
:102F9000C1F8A401FFF751FA01209749091F086001
:102FA000FFF74BFA00209549C1F8A00110BD70B59C
:102FB00004469048001D006820F0F0008D49091D6E
:102FC00008600846006840F03000086000208A4928
:102FD000091F0860002516E0E009874908606006BF
:102FE000040E0120FFF729FA01208449C1F8A0014D
:102FF000FFF723FA00208049091F08600120FFF72E
:103000001CFA681CC5B2082DE6DB70BD2DE9F04145
:1030100005460E4617469846FFF700FF10B90120F7
:10302000BDE8F0816906080EFFF7C1FFFFF748FF12
:1030300018B9FFF723FF0120F2E73046FFF7B7FF8B
:10304000FFF73EFF00240BE018F80400FFF7AFFF86
:10305000FFF736FF18B9FFF711FF0020E0E7641C07
:10306000BC42F1DBFFF70AFF0020D9E770B5054647
:1030700000246048001D006820F0F0005D49091D33
:1030800008600846006840F080000860002617E0ED
:1030900000205949091F08600220FFF7CEF90120DE
:1030A0005649C1F8A0016006040E534880380068F4
:1030B00008B1601CC4B20220FFF7BFF9701CC6B291
:1030C000082EE5DB15B1FFF72BFF01E0FFF74CFF02
:1030D000204670BD2DE9F04106460F4614461D46B8
:1030E000FFF79CFE10B90120BDE8F0817106080EC3
:1030F000FFF75DFFFFF7E4FE18B9FFF7BFFE012001
:10310000F2E73846FFF753FFFFF7DAFEFFF786FED8
:10311000012101EB4601C8B2FFF749FFFFF7D0FEDE
:103120000DE0012C04D10020FFF7A0FF287003E080
:103130000120FFF79BFF28706D1C601EC4B2002C9D
:10314000EFD1FFF79BFE0020CEE770B505460E4697
:103150000024FFF763FE2846FFF729FF641CFFF7F2
:10316000AFFE3046FFF723FF641CFFF7A9FEFFF711
:1031700055FE691CC8B2FFF71AFF641CFFF7A0FEDA
:103180000020FFF773FF0446FFF778FE204670BD6E
:103190002DE9F0410746884615461E460024FFF7F4
:1031A0003DFE3846FFF703FFFFF78AFE4046FFF774
:1031B000FEFEFFF785FEFFF731FE791CC8B2FFF770
:1031C000F6FEFFF77DFE00BF0DE0681EA04204D0B2
:1031D0000120FFF74BFF305503E00020FFF746FFCB
:1031E0003055601CC4B2AC42EFDBFFF747FE20460F
:1031F000BDE8F081000C0140A48121420080214201
:103200002DE9F04180460D4616461F460024FFF783
:1032100005FE4046FFF7CBFEFFF752FE2846FFF7BC
:10322000C6FEFFF74DFE00BF06E0385DFFF7BFFEAC
:10323000FFF746FE601CC4B2B442F6DBFFF71EFE89
:103240000120BDE8F08170B505460E4614463146B2
:103250002846FFF77AFF2070012070BD37B504467D
:103260000D4602AB012229462046FFF7C9FF3EBDAD
:103270002DE9F8430746884614461D46089E6A46CF
:1032800041463846FFF7DFFF28B3601CFF2101FAF3
:1032900000F0C4F108012944491EFF220A411043ED
:1032A00000F0FF09C5F1080006FA00F0C6B2C4F14B
:1032B000070006419DF8000000EA090000909DF813
:1032C0000000304300909DF8002041463846FFF74B
:1032D000C5FFBDE8F8830020FBE7F8B506460F46BA
:1032E00014461D466A4639463046FFF7ACFF2DB1FD
:1032F0000120A0409DF80010084305E00120A040F7
:103300009DF8001021EA0000C0B200909DF8002056
:1033100039463046FFF7A2FFF8BD00001FB5012176
:103320000846FDF7FBFE01210420FDF7F7FE4FF4F0
:103330008050ADF80C0048208DF80F0003A97E489E
:10334000FDF730FC0C210020FDF742FD4FF48050CA
:10335000019000208DF808000C208DF80900012054
:103360008DF80A0001A8FDF73DFB28208DF800002C
:1033700002208DF8010001208DF802008DF8030075
:103380006846FDF790F81FBD1FB501210846FDF7FF
:10339000C5FE01210420FDF7C1FE2020ADF80C0080
:1033A00048208DF80F0003A96348FDF7FBFB0521BA
:1033B0000020FDF70DFD2020019000208DF8080071
:1033C0000C208DF8090001208DF80A0001A8FDF7F6
:1033D00009FB17208DF8000003208DF80100022062
:1033E0008DF8020001208DF803006846FDF75BF8B8
:1033F0001FBD10B52020FDF75BFB012807D14F480A
:10340000007808B9012000E000204C490870202015
:10341000FDF75FFB10BD1FB501210846FDF77EFEDD
:1034200001210420FDF77AFE0420ADF80C004820AD
:103430008DF80F0003A94048FDF7B4FB02210020DE
:10344000FDF7C6FC0420019000208DF808000C2038
:103450008DF8090001208DF80A0001A8FDF7C2FAD5
:1034600008208DF8000003208DF8010002208DF85F
:10347000020001208DF803006846FDF714F81FBD17
:1034800010B50420FDF714FB01280FD12C4800785B
:10349000022805DA2A480078401C2949087005E00E
:1034A0000120274908700020264908600420FDF704
:1034B00010FB10BD1FB501210846FDF72FFE0121AD
:1034C0000420FDF72BFE0820ADF80C0048208DF8F5
:1034D0000F0003A91848FDF765FB03210020FDF745
:1034E00077FC0820019000208DF808000C208DF852
:1034F000090001208DF80A0001A8FDF773FA0920E0
:103500008DF8000003208DF8010002208DF80200E4
:1035100001208DF803006846FCF7C5FF1FBD10B5FC
:103520000820FDF7C5FA012802D1022006490870DB
:103530000820FDF7CEFA10BD000801405800002019
:1035400059000020600000200800002008B501217B
:103550000820FDF7E3FD01210420FDF7DFFD142025
:103560008DF8030003208DF802004FF40040ADF801
:1035700000006946FB48FDF715FB2020ADF8000070
:103580006946F948FDF70EFB0122D103F548FDF726
:10359000BAFB01222021F448FDF7B5FB08BD10B5A8
:1035A00001222021F048FDF7AEFB0122D103ED48B6
:1035B000FDF7A9FB00222021EB48FDF7A4FB002228
:1035C0004FF40041E748FDF79EFB10BD10B5002207
:1035D0002021E548FDF797FB0122D103E148FDF7E3
:1035E00092FB01222021E048FDF78DFB10BD70B554
:1035F0000546002418E080202041284008B1012021
:1036000000E0002002462021D748FDF77CFB012284
:10361000D103D448FDF777FB00224FF40041D14895
:10362000FDF771FB601CC4B2082CE4DB0122D1035E
:10363000CC48FDF768FB00224FF40041C948FDF774
:1036400062FB70BD10B50446FFF7A9FF7820FFF7B5
:10365000CEFF0020FFF7CBFF2046FFF7C8FFFFF7A4
:10366000B5FF10BD10B50446FFF799FF7820FFF7AE
:10367000BEFF4020FFF7BBFF2046FFF7B8FFFFF774
:10368000A5FF10BD70B505460C4645F0B000FFF72C
:10369000D9FF102141EA1410FFF7D4FF04F00F0006
:1036A000FFF7D0FF70BD70B500240EE0002120466A
:1036B000FFF7E8FF002504E00020FFF7D3FF681CB8
:1036C000C5B2802DF8DB601CC4B2082CEEDB70BDE7
:1036D0002DE9F04105460E461746721ED206110E20
:1036E0006A1E5206100EFFF7CDFF002409E0A7F175
:1036F00020019E4A02EB0111085DFFF7B3FF601C39
:10370000C4B2082CF3DB721ED206110E6A1E01230E
:1037100003EB4202D0B2FFF7B5FF00240BE0A7F1A4
:103720002001924A02EB011204F10801505CFFF7FC
:1037300099FF601CC4B2082CF1DBBDE8F0812DE9D3
:10374000F04107460E461546002407E02A5D301971
:10375000C1B23846FFF7BCFF601CC4B2285D002828
:10376000F4D1BDE8F08110B50246012000E05043DD
:103770000B1EA1F10101FAD110BD2DE9F0478046E1
:103780000E4617461D46002415E0281B411E0A2040
:10379000FFF7E9FFB7FBF0F00A21B0FBF1F201FB04
:1037A000120000F130093019C1B24A464046FFF715
:1037B0008FFF601CC4B2AC42E7DBBDE8F0872DE9A7
:1037C000F0478146884615461E46002D06DB2B2213
:1037D00041464846FFF77CFF2F4605E02D22414633
:1037E0004846FFF775FF6F42002417E0301B411E6B
:1037F0000A20FFF7B8FFB7FBF0F00A21B0FBF1F2A7
:1038000001FB120000F1300A08EB0400401CC1B2B9
:1038100052464846FFF75CFF601CC4B2B442E5DB89
:10382000BDE8F0872DE9F04781460E4690461F46D9
:1038300000241DE0381B411E1020FFF794FFB8FB49
:10384000F0F000F00F050A2D08DA05F13000C2B2E1
:103850003019C1B24846FFF73BFF07E005F13700DA
:10386000C2B23019C1B24846FFF732FF601CC4B281
:10387000BC42DFDBBDE8F0872DE9F04780460E460D
:1038800017461D46002412E0281B411E0220FFF7A8
:103890006AFFB7FBF0F000F0010000F130093019C9
:1038A000C1B24A464046FFF713FF601CC4B2AC42A7
:1038B000EADBBDE8F08770B5002406E0002500E0F3
:1038C0006D1CB5F57A7FFBD3641CB4F57A7FF5D314
:1038D000FFF73CFEAE20FFF7B5FED520FFF7B2FEA6
:1038E0008020FFF7AFFEA820FFF7ACFE3F20FFF7D8
:1038F000A9FED320FFF7A6FE0020FFF7A3FE40207D
:10390000FFF7A0FEA120FFF79DFEC820FFF79AFE5B
:10391000DA20FFF797FE1220FFF794FE8120FFF7D1
:1039200091FECF20FFF78EFED920FFF78BFEF1200E
:10393000FFF788FEDB20FFF785FE3020FFF782FED1
:10394000A420FFF77FFEA620FFF77CFE8D20FFF767
:1039500079FE1420FFF776FEAF20FFF773FEFFF726
:10396000A2FE70BD00080140000C01402EA200081C
:103970002DE9F05F05460E46144621464F48006883
:1039800006F060FA82463146284606F058FB834628
:103990004B480168584606F055FA8146514606F0F4
:1039A00051F8804606F0B2F907463846BDE8F09F68
:1039B0002DE9FE4F05460E461746F019401B0290B2
:1039C0004048006806F0DEF901903F480168019820
:1039D00006F038FA8246029806F0D4F901903A4887
:1039E00001684FF07E5006F035FB0090019906F01B
:1039F00029FA8346514606F025F8814606F086F9F5
:103A00000446304804603148006820442F4908606B
:103A10000846006844F62061884202DD08462B49CA
:103A200008602A4800682A49884202DA084627497D
:103A3000086028480078012802D100202349086046
:103A40002248006806F09EF9019023480168019819
:103A500006F0F8F98246204606F094F901901F48D6
:103A60000168019806F0EEF98346514605F0EAFF39
:103A7000814606F04BF980464046BDE8FE8F2DE9B1
:103A8000F04705460C4616480168284606F0DAF964
:103A90008146204606F076F9824612480168504673
:103AA00006F0D0F98046494605F0CCFF074606F0FF
:103AB0002DF906463046BDE8F0870000B000002032
:103AC000AC000020C4000020CC000020C800002072
:103AD000E0B1FFFF58000020B8000020B400002033
:103AE000C0000020BC0000202DE9F04106460C4635
:103AF0001546FA48007810B90020BDE8F081F84872
:103B00000088C0B9F7480168F74805F09BFF0746F1
:103B1000314606F063F90ED2F2480168F34805F029
:103B200091FF0746314606F059FA04D21CB915B97F
:103B30000120EB490880EA480088012819D1EC48A7
:103B40000088401C80B2EA490880322803DD00204A
:103B50000880E3490880032C0BDD032D09DD282CA8
:103B600007DA282D05DA0020DD49088008800120C9
:103B7000C3E70020C1E70146002901DA484200E01E
:103B80000846704700B503460A46002B07DD0120B2
:103B9000D84908600020D849C1F8B00106E00020EB
:103BA000D44908600120D449C1F8B0011846FFF794
:103BB000E2FFD2490880002A08DD0120CD49083102
:103BC00008600020CC49C1F8B80107E00020C949CD
:103BD000083108600120C849C1F8B8011046FFF754
:103BE000CAFFC6490C39088000BD03461846884202
:103BF00000DD0846904200DA104670472DE9F04F8C
:103C00008FB0814604F08DFABD490860B9F1010F0B
:103C10001BD104F06EF9BB480068BB490860BB4982
:103C2000B1F9000006F0AEF8B9490860B749B1F93A
:103C3000040006F0A7F8B7490860B749B1F90400D5
:103C400006F0A0F8B549086045E14421D020FFF70F
:103C50007CFA83464321D020FFF777FA0BEB002054
:103C6000079006F08FF804464621D020FFF76DFA42
:103C700083464521D020FFF768FA0BEB0020079020
:103C800006F080F880464821D020FFF75EFA834690
:103C90004721D020FFF759FA0BEB0020079006F0E0
:103CA00071F807463C21D020FFF74FFA83463B21AD
:103CB000D020FFF74AFA0BEB0020079006F062F8DD
:103CC0000A903E21D020FFF740FA83463D21D020C4
:103CD000FFF73BFA0BEB0020079006F053F80B9030
:103CE0004021D020FFF731FA83463F21D020FFF753
:103CF0002CFA0BEB0020079006F044F806464FF034
:103D00008E41204606F06AF905D24FF08F412046D9
:103D100006F0A0F904464FF08E41404606F05EF9E9
:103D200005D24FF08F41404606F094F980464FF09F
:103D30008E41384606F052F905D24FF08F41384691
:103D400006F088F907464FF08E410A9806F046F9CA
:103D500005D24FF08F410A9806F07CF90A904FF097
:103D60008E410B9806F03AF905D24FF08F410B982F
:103D700006F070F90B904FF08E41304606F02EF9A8
:103D800005D24FF08F41304606F064F9064684F0C4
:103D900000405F4908600A9805F028FE604A614BC0
:103DA000CDE9040105F0AEF9CDE9060105F0C8F84A
:103DB0000E900B9805F01AFE594A5A4BCDE90401B2
:103DC00005F0A0F9CDE9060105F0BAF80D903046EE
:103DD00005F00CFE524A534BCDE9040105F092F96F
:103DE000CDE9060105F0ACF80C90204605F0FEFD8B
:103DF0004FF066324C4BCDE9040105F083F9CDE973
:103E0000060105F09DF88246404605F0EFFD4FF0B3
:103E10006632454BCDE9040105F074F9CDE90601A0
:103E200005F08EF8054641480078022837D18AF01F
:103E3000004002460190DDE90C1003F050FB834680
:103E400005F0D4FD3A4A3B4BCDE9020105F05AF9A1
:103E50000022394BCDE9040105F0EEFACDE9060167
:103E600005F06EF8274908602A460C990E9803F071
:103E700083FC834605F0BAFD2D4A2E4BCDE90201A5
:103E800005F040F900222C4BCDE9040105F0D4FAED
:103E9000CDE9060105F054F82849086013E02348ED
:103EA000007803280FD12146099800F00CFB80F020
:103EB0000040144908604146089800F081FC80F0F9
:103EC00000401E4908600F4800680F49086011480B
:103ED0000760124806600FB0BDE8F08F06000020B2
:103EE000D000002064000020000020C1000020411C
:103EF000D2000020B481214200802142402C0140A8
:103F000014000020E801002018000020D401002047
:103F10001C00002020000020DA01002028000020E2
:103F20008FC2F5285C1F9A40665E8D40000000201D
:103F3000F1D4C853FB21094000806640E401002011
:103F40002DE9F84F4FF48050FCF7B2FD01287DD1E8
:103F500001E0BDE8F88F654800780128F9D0634892
:103F60000078F0B96248007801281AD161496248A6
:103F7000006805F033FF14D80A206049087000205B
:103F80005F4908705C48006805F030FD07465D4AEF
:103F90005D4B05F007F8054604F0D2FF564908606E
:103FA00025E05248007878B95148007801280BD1B3
:103FB00050495148006806F011F805D200204F49D9
:103FC00008704F49087012E04848007850B94848D6
:103FD0000078022806D10A2048490870052048497F
:103FE000087004E0002045490870454908704748BA
:103FF0000078FFF703FE0220FEF72BFEC0F1000A57
:104000000420FEF726FEC0F1000B5A4651463B48FD
:104010000078FFF7CDFC0090009805F0B3FE06464F
:104020003B480168304605F00DFD054639480268F9
:10403000394801682846FFF79BFC04463048017860
:1040400036480068FFF71BFD814600E02BE004EBDB
:10405000090033490860A4EB090032490860324A7C
:1040600051422F480068FFF7C0FD2D4908602E4AD5
:1040700051422C480068FFF7B8FD2A4908600846FD
:10408000016827480068FFF77DFD5A4651462248DF
:104090000068FFF729FD012801D1144908704FF489
:1040A0008050FCF716FD4FF48050FCF712FD00BF66
:1040B0004FE770B53220FEF78DFC0546012D07D184
:1040C0001A48007808B9012000E00020174908705C
:1040D000FEF7EFFC0446012C07D11548007808B91B
:1040E000012000E000201249087070BD5800002037
:1040F0005900002000004843600000205A000020C2
:104100005B0000209A9999999999B93F0000002085
:10411000640000201C000020180000202000002067
:104120000C000020100000200CE5FFFF060000201E
:104130000700002010B531A201210846FFF7FFFA61
:1041400033A201210220FFF7FAFA38A2012103204D
:10415000FFF7F5FA3BA201210420FFF7F0FA3FA296
:1041600001210520FFF7EBFA10BD70B541A2012136
:104170000846FFF7E4FA0123404802780621184672
:10418000FFF7FBFA05233E48012102680220FFF7F2
:1041900016FB05233B48072102680220FFF70FFBAF
:1041A00039493A48006805F04DFE054605F0AEFD78
:1041B00004460523224601210320FFF700FB324974
:1041C0003348006805F03EFE054605F09FFD0446B5
:1041D0000523224601210420FFF7F1FA2A492D4840
:1041E000006805F02FFE054605F090FD0446052306
:1041F000224601211846FFF7E2FA70BD476F647A44
:10420000696C6C612042616C616E63654361720030
:10421000507265737320427574746F6E3020746FC2
:10422000205475726E204F6E00000000507265734E
:104230007320427574746F6E31203A204D6F64653F
:1042400031000000507265737320427574746F6E94
:1042500032203A204D6F6465320000005072657361
:104260007320427574746F6E33203A204D6F64650D
:10427000330000004D6F64653A00000059000020D3
:104280002C000020300000200000C8421800002050
:104290001C000020200000202DE9F05F05460C46A0
:1042A000FD4EFE4F4FF07C584FF00109FC4801686D
:1042B000204605F0CFFE8346FA480168584605F0CF
:1042C000C1FD8246F8480168504605F0BBFBF6493F
:1042D0000860F6484168304605F0BCFE8246F34867
:1042E0008168504605F0B6FEF1490860EF48C068A5
:1042F00080F000404860ED48C06880F00040886071
:104300000846C7600868E749096805F09BFD8246D2
:10431000E6480168504605F095FBE4490860E44929
:104320004868E049096805F08DFD8246DF4841682C
:10433000504605F087FBDD494860DD498868D9496A
:10434000096805F07FFD8246D8488168504605F02F
:1043500079FBD6498860D649C868D249096805F012
:1043600071FD8246D148C168504605F06BFBCF49CC
:10437000C860CD480168284605F06CFECD4908604C
:10438000484605F017FD8246C8480168504605F0CA
:1043900059FDC9490860484605F00CFD8246C348EE
:1043A0008168504605F04EFDC4490860484605F056
:1043B00001FD8346C0480168584605F043FD82462A
:1043C000414605F03FFBBE49086008460168BA480F
:1043D000006805F0A5FBBB490860B9480168B7480B
:1043E000006805F09DFBB8490860B3480068B7490C
:1043F0000860484605F0DEFC8246AC4841685046FD
:1044000005F020FDB2490860B0480168AD48006879
:1044100005F018FD8246A5480168504605F00FFEDC
:10442000A2490860AA480168A648006805F00AFD8C
:1044300082469E484168504605F001FE9B4948600F
:10444000A2480168A048006805F0FCFC8246974835
:104450008168504605F0F3FD944988609C480168E6
:104460009948006805F0EEFC82469048C1685046C5
:1044700005F0E5FD8D49C8608E48016891480068E7
:1044800005F0E0FC824688480168504605F0DAFAFB
:1044900085490860874801688B48006805F0D2FCB0
:1044A00082467F480168504605F0CCFA7C49086096
:1044B00008460168204605F0CDFD864908607A4827
:1044C0000068BDE8F09F2DE9F05F05460C46824E7E
:1044D00074480168204605F0B5FC83467F480168B2
:1044E000584605F0AFFA804631464FF07E5005F051
:1044F000B1FD8246414605F0A5FC074631462846F7
:1045000005F0A0FC8146394605F09CFA7349086025
:1045100008460068BDE8F09F2DE9F05F05460C46AF
:104520005D4E5E4F4FF07C584FF001096C480168BA
:10453000204605F08FFD83465A480168584605F02D
:1045400081FC824667480168504605F07BFA654960
:10455000086065484168304605F07CFD8246624847
:104560008168504605F076FD604908605E48C06885
:1045700080F0004048605C48C06880F0004088607F
:104580000846C76008684749096805F05BFC824631
:1045900055480168504605F055FA5349086053499B
:1045A00048684049096805F04DFC82464E4841681C
:1045B000504605F047FA4C4948604C4988683949EB
:1045C000096805F03FFC824647488168504605F07F
:1045D00039FA454988604549C8683249096805F093
:1045E00031FC82464048C168504605F02BFA3E49EE
:1045F000C8603C480168284605F02CFD3C4908602D
:10460000484605F0D7FB824637480168504605F01A
:1046100019FC38490860484605F0CCFB8246324810
:104620008168504605F00EFC33490860484605F0A5
:10463000C1FB83462F480168584605F003FC8246BB
:10464000414605F0FFF92D490860084601682948F0
:10465000006805F065FA2A4908602848016826487C
:10466000006805F05DFA274908602248006826497D
:104670000860484605F09EFB82461B48416850464C
:1046800005F0E0FB214908601F4801681C480068EC
:1046900005F0D8FB82463BE06F12833AA69B443B71
:1046A000E0000020D4000020DC00002004010020F5
:1046B00010020020E4000020E8000020EC000020B0
:1046C000F0000020F4000020F8000020FC00002092
:1046D00000010020D80000200AD7A33C14010020CC
:1046E000200100201C0100204401002020020020A5
:1046F00024010020280100202C010020300100208E
:1047000034010020380100203C010020400100203D
:1047100040480168504605F092FC3E4908603E481A
:1047200001683E48006805F08DFB824639484168C3
:10473000504605F084FC37494860394801683948DB
:10474000006805F07FFB824632488168504605F0DC
:1047500076FC30498860304801683248006805F0CE
:1047600071FB82462B48C168504605F068FC294918
:10477000C8602D4801682948006805F063FB82463F
:104780002A480168504605F05DF928490860264826
:1047900001682448006805F055FB824624480168FA
:1047A000504605F04FF92249086008460168204646
:1047B00005F050FC1F4908601C480068BDE8F09FE8
:1047C0002DE9F05F05460C461B4E1C48016820464B
:1047D00005F038FB83461A480168584605F032F95F
:1047E000804631464FF07E5005F034FC824641460B
:1047F00005F028FB07463146284605F023FB814695
:10480000394605F01FF90E49086008460068BDE802
:10481000F09F0000440100204001002034010020EE
:104820003C01002038010020240100201C01002050
:1048300020010020180100200AD7A33CD40000204A
:104840005401002010B5C8234FF48062F74940F6A8
:10485000F63002F087FC10BD10B586B00446F4A017
:1048600000680390F3A000680290F3A00068019034
:10487000F2A00068009004F0030003A9085C8DF822
:10488000140003A8C4F3C101405C8DF8150003A80F
:10489000C4F38111405C8DF8160004F0030002A9F6
:1048A000085C8DF8100002A8C4F3C101405C8DF8CB
:1048B000110002A8C4F38111405C8DF8120005AA12
:1048C000032140F2264002F0D3FB18B14FF0FF3035
:1048D00006B010BD04AA032140F22A4002F0C8FB32
:1048E00010B14FF0FF30F3E7019805900098049065
:1048F00004F0040058B19DF8140040F001008DF858
:1049000014009DF8100040F001008DF8100004F034
:10491000200058B19DF8150040F001008DF81500F9
:104920009DF8110040F001008DF8110004F4807032
:1049300058B19DF8160040F001008DF816009DF862
:10494000120040F001008DF8120005AA03214FF477
:10495000886002F08DFB10B14FF0FF30B8E704AA79
:10496000032140F2314002F083FB10B14FF0FF30E1
:10497000AEE7B34804810020AAE71FB50446B0485B
:10498000007A00F0030054F820000190AC48007A4F
:1049900000F0040010B1019840420190A848007A4C
:1049A000C0F3C10054F820000290A548007A00F03E
:1049B000200010B1029840420290A148007AC0F352
:1049C000811054F8200003909D48008900F4807005
:1049D00010B10398404203909A49019880FB01016D
:1049E000800F40EA810001909649029880FB0110F7
:1049F000820042EA917002909249039880FB011074
:104A0000820042EA917003900198000E8DF8000038
:104A10000198000C8DF801000198000A8DF8020041
:104A20000198C0B28DF803006A4604214FF47470F7
:104A300002F01EFB18B14FF0FF3004B010BD029819
:104A4000000E8DF800000298000C8DF8010002980D
:104A5000000A8DF802000298C0B28DF803006A4681
:104A600004214FF4757002F003FB10B14FF0FF30DA
:104A7000E3E70398000E8DF800000398000C8DF812
:104A800001000398000A8DF802000398C0B28DF867
:104A900003006A4604214FF4767002F0E9FACCE78D
:104AA00070B588B0064601A801F0E9FCBDF8040025
:104AB0000021C90341EA5045C4036148007A00F06F
:104AC000030056F8200005905D48007A00F00400CD
:104AD00010B10598404205905948007AC0F3C100D2
:104AE00056F8200006905648007A00F0200010B1D9
:104AF0000698404206905248007AC0F3811056F85A
:104B0000200007904E48008900F4807010B107988B
:104B1000404207900598C117A0FB042301FB043114
:104B200000FB0510810041EA927005900698C117BC
:104B3000A0FB042301FB043100FB0510810041EAC6
:104B4000927006900798C117A0FB042301FB043163
:104B500000FB0510810041EA927007900598000E55
:104B60008DF808000598000C8DF809000598000ADA
:104B70008DF80A000598C0B28DF80B000698000E5B
:104B80008DF80C000698000C8DF80D000698000AB0
:104B90008DF80E000698C0B28DF80F000798000E31
:104BA0008DF810000798000C8DF811000798000A86
:104BB0008DF812000798C0B28DF8130002AA0C21DC
:104BC0004FF4257002F054FA08B070BD30B585B0CE
:104BD00004461DA207CA02AB07C3C82C03DD4FF071
:104BE000FF3005B030BDC82090FBF4F0401E85B208
:104BF000280A8DF80000E8B28DF801006A4602210B
:104C000040F2162002F034FA10B14FF0FF30E8E71E
:104C100002AA0C2140F6C12002F02AFA10B14FF08E
:104C2000FF30DEE7064884810020DAE71EA800088E
:104C30004CCD6C000CC92C0036567600264666001A
:104C40003002002009E3CA02FEF2ABC4AAF1DFDFA2
:104C5000BBAFDFDF0146FC48808908800020704739
:104C60002DE9FC4706460F4606F0070010B1B7F5E0
:104C7000C86F03DD4FF0FF30BDE8FC87384605F014
:104C800099F88146F14904F04BFF8046684601F0EF
:104C90007AFB9DF80000022806D0042816D00828C8
:104CA00026D0102848D135E04FF08D41404605F020
:104CB000C9F8814605F046F884B2E549404605F05A
:104CC000C1F8814605F03EF885B238E04FF08C41DE
:104CD000404605F0B7F8814605F034F884B2DD4966
:104CE000404605F0AFF8814605F02CF885B226E085
:104CF0004FF08B41404605F0A5F8814605F022F8BB
:104D000084B2D549404605F09DF8814605F01AF871
:104D100085B214E04FF08A41404605F093F8814691
:104D200005F010F884B2CD49404605F08BF8814675
:104D300005F008F885B202E04FF0FF309CE700BFB5
:104D400020128DF80400E0B28DF8050028128DF8CD
:104D50000600E8B28DF8070006F00100A0B101AA34
:104D600002214FF4EA7002F083F910B14FF0FF30E6
:104D700082E70DF1060202214FF4927002F078F9F9
:104D800010B14FF0FF3077E706F00200A0B101AAA2
:104D900002214FF4EC7002F06BF910B14FF0FF30CC
:104DA0006AE70DF1060202214FF4947002F060F9F7
:104DB00010B14FF0FF305FE706F00400A0B101AA88
:104DC00002214FF4EE7002F053F910B14FF0FF30B2
:104DD00052E70DF1060202214FF4967002F048F9F5
:104DE00010B14FF0FF3047E7002045E738B50446E3
:104DF0000020009004F0010020B19DF8000040F078
:104E00003000009004F0020020B19DF8000040F056
:104E10000C00009004F0040020B19DF8000040F068
:104E2000030000906A4601214FF4A47002F020F9BB
:104E300038BD38B50446012C01DA012402E0042C07
:104E400000DD0424601EC0B200906A46012140F2D9
:104E50004F1002F00DF938BD38B50446052094FB1B
:104E6000F0F085B228128DF80000E8B28DF801004C
:104E70006A4602214FF4EF7002F0FAF838BD38B5F7
:104E80000446052094FBF0F085B228128DF800004E
:104E9000E8B28DF801006A4602214FF4ED7002F08D
:104EA000E7F838BDF8B505460E464FF47A7095FB25
:104EB000F0F000FB06F4200E8DF80000200C8DF8B9
:104EC0000100200A8DF80200E0B28DF803006A4666
:104ED00004214FF4AE7002F0CBF8F8BD38B50446AB
:104EE000052094FBF0F084B220128DF80000E0B2AF
:104EF0008DF801006A4602214FF4AD7002F0B8F857
:104F000038BD38B50446052094FBF0F084B2201279
:104F10008DF80000E0B28DF801006A4602214FF4DE
:104F2000AC7002F0A5F838BD38B5044614B94FF09E
:104F3000FF3038BD6A4604214FF4587002F0D5F8AE
:104F400010B14FF0FF30F4E79DF8000000069DF827
:104F5000011040EA01409DF8021040EA01209DF84E
:104F60000310084320600020E3E738B50446200E14
:104F70008DF80000200C8DF80100200A8DF8020049
:104F8000E0B28DF803006A4604214FF4587002F035
:104F90006FF838BD38B5044614B94FF0FF3038BD4E
:104FA0006A4604214FF4717002F09FF810B14FF07F
:104FB000FF30F4E79DF8000000069DF8011040EA7C
:104FC00001409DF8021040EA01209DF803100843BB
:104FD00000EB8000800020600020E0E738B5044648
:104FE0001420B4FBF0F4200E8DF80000200C8DF896
:104FF0000100200A8DF80200E0B28DF803006A4635
:1050000004214FF4717002F033F838BD38B504460E
:1050100064B120208DF8000028208DF80100302098
:105020008DF8020038208DF8030004E0A32204214B
:10503000684603F045FA6A46042140F69E2002F0D5
:1050400017F800F07DFC38BD300200200000484316
:10505000000040460000C045000040450000C0443C
:1050600038B5044664B1C0208DF80000C2208DF828
:105070000100C4208DF80200C6208DF8030004E072
:105080008B220421684603F01BFA6A46042140F68D
:10509000982001F0EDFF00F053FC38BD3EB504460A
:1050A0006CB1FDA1D1E900208968CDE90020029111
:1050B0006A4609214FF4976001F0DAFF3EBDF9A27C
:1050C000D2E900109268CDE9010200916A460921F7
:1050D0004FF4976001F0CCFFF0E73EB504460220A4
:1050E0008DF80000CA208DF80100E3208DF8020041
:1050F00009208DF803006A460421682001F0B8FFFA
:10510000A3208DF8000004F0400048B1C0208DF8C5
:105110000100C8208DF80200C2208DF8030006E0CF
:10512000A3208DF801008DF802008DF8030004F42F
:10513000C07048B1C4208DF80400CC208DF8050063
:10514000C6208DF8060006E0A3208DF804008DF837
:1051500005008DF80600A3208DF807008DF80800E3
:105160008DF809006A460A2140F6A72001F080FF69
:1051700004F0030018B120208DF8000002E0D820D0
:105180008DF800006A46012140F6B62001F070FF5C
:1051900004F0200018B10120FFF780FF02E000209A
:1051A000FFF77CFF04F4C07008B304F4807060B1B2
:1051B000B2208DF800008B208DF80100B6208DF80C
:1051C00002009B208DF803000BE0B0208DF800005A
:1051D00080208DF80100B4208DF8020090208DF819
:1051E00003006A46042140F6A22001F041FF04F0CA
:1051F000010020B3F8208DF800006A4601214FF429
:105200000B6001F035FFFA210720FFF729FD072089
:10521000FFF7ECFD0120FFF70CFE6420FFF71CFEFA
:105220004FF4FA70FFF72BFEC821A148FFF73AFEB2
:105230002820FFF753FE0A20FFF763FE08E0D8207E
:105240008DF800006A4601214FF40B6001F010FF59
:1052500004F0020018B1D9208DF8000002E0D82037
:105260008DF800006A46012140F23D7001F000FF18
:1052700004F0040018B10120FFF7F2FE02E0002064
:10528000FFF7EEFE04F0100018B10120FFF7BEFE9C
:1052900002E00020FFF7BAFE44F00800854948818B
:1052A00000F04EFB00208349887304F0400018B1E1
:1052B0000846807B801D887304F4C07020B17D484F
:1052C000807B801D7B49887304F0140020B17948ED
:1052D000807B10307749887304F0030020B1754853
:1052E000807B001D7349887300203EBD01467148D4
:1052F00040890880002070472DE9F0410446E0789D
:1053000000F0C006E07800F03F05607800F0010092
:1053100098B1EF102846E91705EB5171C910A5EBBC
:10532000C101491C01F0FF086248006820B16148D2
:10533000414602683846904700BF607800F0080098
:1053400030B15C48406818B1B0115A4A516888477A
:105350000020BDE8F08110B586B0044656A207CA09
:1053600003AB07C357A207CA8DE80700012C09D079
:10537000022C0ED103AA0B2140F6822001F078FE08
:1053800006B010BD6A460B2140F6822001F070FE87
:10539000F6E74FF0FF30F3E72DE9F04F8DB0074609
:1053A000884615469946DDE9166B002400203080BA
:1053B0004049887B5A4605A901F0BDF918B1601E25
:1053C0000DB0BDE8F08F3B48807A00F01400002853
:1053D00061D09DF8140000069DF8151040EA0140C8
:1053E0009DF8161040EA01209DF817100843286028
:1053F0009DF8180000069DF8191040EA01409DF83C
:105400001A1040EA01209DF81B10084368609DF8BF
:105410001C0000069DF81D1040EA01409DF81E107A
:1054200040EA01209DF81F100843A8609DF8200065
:1054300000069DF8211040EA01409DF8221040EA44
:1054400001209DF823100843E86004F11000C4B265
:10545000286800140190686800140290A86800147D
:105460000390E8680014049001984043029901FBFE
:105470000100039901FB0100049901FB010ABAF143
:10548000706F02DBBAF1885F22DD00F059FA00206C
:105490003080401E94E721E0B8AAB38DB4980D3552
:1054A0005D000000B8AAAAAAB088C3C5C700000062
:1054B00009E3CA0230020020D8B1B9F38BA391B638
:1054C00009B4D900DAB1B9F38BA391B6DAB4DA0032
:1054D000B6F9000040F48070308000BF3448807A14
:1054E00000F0400020B305A9601C085C095D40EA9B
:1054F000012000B2A8F8000005A9E01C095C05AA7B
:10550000A01C105C41EA002000B2A8F8020005A926
:10551000601D095C201D105C41EA002000B2A8F863
:105520000400A01DC4B2B6F9000040F008003080AD
:105530001F48408900F4C07008B305A9601C085CCE
:10554000095D40EA012000B2388005A9E01C095C31
:1055500005AAA01C105C41EA002000B2788005A9D1
:10556000601D095C201D105C41EA002000B2B8807B
:10557000A01DC4B2B6F9000040F0700030800C48A5
:10558000807A00F0030018B105A90819FFF7B4FEEE
:10559000484600F034FD002012E70146044801604F
:1055A000002070470146024841600020704700001B
:1055B0003002002038B50446FB4890F82400C0B102
:1055C00014B10220009001E000200090F64A126819
:1055D000D17BF54A526810786B460122FDF716FD23
:1055E00010B14FF0FF3038BD9DF80010EE48417407
:1055F00023E0ED48807A10B94FF0FF30F3E724B193
:10560000E948407C08B10020EDE714B1012000908A
:1056100001E000200090E44A1268D17BE24A52681F
:1056200010786B460122FDF7F1FC10B14FF0FF300E
:10563000D9E79DF80010DC4841740020D3E738B565
:10564000002419E0D8480068C07AA04204D0D648A7
:105650000068407DA04200D10CE0D3494968087839
:105660006B4601222146FDF735FD10B14FF0FF30AA
:1056700038BD00BF601CC4B2CB4840680079A0426E
:10568000E0DC0020F4E770B504460D46C64800682B
:10569000C07AA04204D0C4480068407DA04202D134
:1056A0004FF0FF3070BDC04840680079A04202DC76
:1056B0004FF0FF30F6E7BC49496808782B460122D5
:1056C0002146FDF707FDEDE738B50446B64890F8EA
:1056D0002300A04201D1002038BD14B13020009039
:1056E00001E000200090B048807C20B19DF80000CF
:1056F00040F002000090AC4890F8220020B19DF8E4
:10570000000040F080000090A74A1268117DA64A70
:10571000526810786B460122FDF778FC10B14FF00B
:10572000FF30D9E7A04880F823400020D4E738B5FF
:10573000044604F0700010B10120009005E014B19F
:105740000020009001E040200090974A1268917C70
:10575000954A526810786B460122FDF757FC20B13C
:10576000002191488172481E38BD9DF8000020F04C
:1057700040018D4801730020009004F0400020B9E2
:105780009DF8000040F00400009004F0200020B9D3
:105790009DF8000040F00200009004F0100020B9D5
:1057A0009DF8000040F00100009004F0080020B9CE
:1057B0009DF8000040F0380000907B4A1268D17CD0
:1057C000794A526810786B460122FDF71FFC20B120
:1057D000002175488172481EC6E724B1082C02D00A
:1057E0000020FFF771FF704884720021017532209C
:1057F000FCF747FE0020B7E738B504466A48807CCE
:10580000A04201D1002038BD002C46D0664A126863
:105810001179654A526810786B460122FDF75AFCEF
:1058200010B14FF0FF30EEE79DF8000020F02000AF
:1058300000905D4A126811795B4A526810786B4695
:105840000122FDF7E3FB10B14FF0FF30DBE703204F
:10585000FCF717FE02200090534890F8220020B178
:105860009DF8000040F0800000904F4890F8230021
:1058700020B19DF8000040F0300000904A4A1268C4
:10588000117D494A526810786B460122FDF7BEFB34
:10589000002851D04FF0FF30B5E7434A1268117924
:1058A000414A526810786B460122FDF713FC10B193
:1058B0004FF0FF30A7E73C48807A00F0010028B1A4
:1058C0009DF8000040F02000009004E09DF80000EA
:1058D00020F020000090344A12681179324A526850
:1058E00010786B460122FDF791FB10B14FF0FF30AD
:1058F00089E70320FCF7C5FD2B4890F8220010B182
:105900008020009001E000200090274890F82300BC
:1059100020B19DF8000040F030000090224A12684B
:10592000117D214A526810786B460122FDF76EFB0B
:1059300010B14FF0FF3066E71B488474002062E727
:1059400008B51948807A10B94FF0FF3008BD002023
:105950000090154A1268D17B134A526810786B4642
:105960000122FDF753FB10B14FF0FF30EEE70E4A76
:10597000126851790C4A526810786B460122FDF783
:1059800045FB10B14FF0FF30E0E7074A126811798C
:10599000054A526810786B460122FDF737FB28B1A3
:1059A0004FF0FF30D2E7000058010020F74890F890
:1059B0002400002850D00C200090F44A126811797D
:1059C000F24A526810786B460122FDF71FFB10B1B6
:1059D0004FF0FF30BAE7C0200090EC48807A00F02A
:1059E000010020B19DF8000040F020000090E74A3F
:1059F00012681179E54A526810786B460122FDF76A
:105A000005FB10B14FF0FF30A0E7E048407C10B13B
:105A10000220009001E000200090DC4A1268D17B57
:105A2000DA4A526810786B460122FDF7EFFA10B19E
:105A30004FF0FF308AE700200090D44A1268517975
:105A4000D24A526810786B460122FDF7DFFA00282F
:105A500052D04FF0FF3079E704200090CB4A126813
:105A60001179CA4A526810786B460122FDF7CEFAC6
:105A700010B14FF0FF3069E7C448807C20B9C348BB
:105A8000807A00F0010010B94020009001E0602011
:105A90000090BE4A12681179BC4A526810786B4671
:105AA0000122FDF7B3FA10B14FF0FF304EE7B748CF
:105AB000407C10B10120009001E000200090B34A2A
:105AC0001268D17BB14A526810786B460122FDF70B
:105AD0009DFA10B14FF0FF3038E7AC4A12685179A7
