:020000040800F2
:1000000070090020C9040008CD020008CF020008D2
:10001000D3020008D7020008DB020008000000003D
:10002000000000000000000000000000DF020008E7
:10003000E102000800000000E3020008E5020008F9
:10004000E3040008E3040008E3040008E3040008F4
:10005000E3040008E3040008E3040008E3040008E4
:10006000672E0008072F0008E3040008E3040008D7
:10007000E3040008E3040008E3040008E3040008C4
:10008000E3040008E3040008E3040008E3040008B4
:10009000E3040008E3040008E3040008D12D00088D
:1000A000E3040008E3040008E3040008E304000894
:1000B000B5270008E30400089D270008E3040008B2
:1000C000E3040008E3040008E3040008E304000874
:1000D000E3040008E72F0008E3040008E304000835
:1000E0005B3A0008E3040008E304000800F002F8AB
:1000F00000F05FF80AA090E8000C82448344AAF163
:100100000107DA4501D100F054F8AFF2090EBAE860
:100110000F0013F0010F18BFFB1A43F0010318473B
:10012000F8B5000018B600000A444FF0000C10F8B3
:10013000013B13F0070408BF10F8014B1D1108BF65
:1001400010F8015B641E05D010F8016B641E01F805
:10015000016BF9D113F0080F1EBF10F8014BAD1C55
:100160000C1B09D16D1E58BF01F801CBFAD505E073
:1001700014F8016B01F8016B6D1EF9D59142D6D3CD
:10018000704700000023002400250026103A28BFF5
:1001900078C1FBD8520728BF30C148BF0B607047F9
:1001A000642908F04781002070471FB51FBD10B5B6
:1001B00010BD08F00FFB1146FFF7F7FF00F00EF837
:1001C00008F02DFB03B4FFF7F2FF03BC02F0F2F8D6
:1001D00030BF72B662B680F308887047022001F023
:1001E00027FF02F07DF8022002F00CF8012002F057
:1001F00009F802F043F9002141F61F4002F09EF990
:100200004FF4165002F0A0FE02F0F0F902F04BFAA3
:1002100002F0E0FA03F029F904F026FA04F038FAC3
:1002200002F0A2FD02F0EBFD02F039FE02F050F9FF
:1002300002F064FD41E02148007890B90020204997
:10024000087020490870084600781D4909788842DE
:1002500001D003F002F804F0D7FB194800781949DF
:1002600008701948007890B91448007801280ED118
:1002700013490870134800780978884201D002F0C9
:10028000ECFF04F0FEFB0E4800780E4908700E48A3
:10029000007890B90948007802280ED10849087002
:1002A000084800780978884201D002F0D6FF04F0AF
:1002B000E8FB0348007803490870BCE78100002090
:1002C000040000200500002080000020704700BFCF
:1002D000FEE700BFFEE700BFFEE700BFFEE7704796
:1002E00070477047704700000CB5002001900090E7
:1002F0006C48006840F480306A49086000BF694873
:10030000006800F4003000900198401C01900098B3
:1003100018B90198B0F5A06FF1D16248006800F4F7
:10032000003010B10120009001E000200090009802
:10033000012843D15C48006840F010005A49086029
:100340000846006820F0030008600846006840F096
:1003500002000860534840685249486008464068B7
:1003600048600846406840F480604860084640683D
:1003700020F47C1048600846406840F4E81048606B
:100380000846006840F08070086000BF454800687B
:1003900000F000700028F9D04248406820F00300C7
:1003A000404948600846406840F00200486000BF8D
:1003B0003C48406800F00C000828F9D10CBD10B58D
:1003C000FFF792FF10BD10B53648006840F00100FD
:1003D000344908600846406834490840314948605B
:1003E00008460068324908402E49086008460068FF
:1003F00020F4802008600846406820F4FE00486031
:100400004FF41F008860FFF7DAFF4FF000602949C2
:10041000086010BD10B5002100200022214B5B6850
:1004200003F00C0121B1042906D0082928D107E0E6
:10043000214B224C236027E01F4B204C236023E0FC
:10044000184B5B6803F47010164B5B6803F4803242
:10045000022303EB904022B9194B4343174C23600E
:100460000DE0104B5B6803F4003323B1144B43439E
:10047000124C236003E0104B4343104C236003E015
:100480000D4B0E4C236000BF00BF064B5B68C3F3EF
:1004900003130C4CE15C094B1B68CB40074C2360F9
:1004A00010BD000000100240002002400000FFF8D4
:1004B000FFFFF6FE08ED00E000127A00A400002025
:1004C00000093D00A800002009488047094800476E
:1004D000FEE7FEE7FEE7FEE7FEE7FEE7FEE7FEE7F4
:1004E000FEE7FEE704480549054A064B7047000051
:1004F000C7030008ED000008700300207009002009
:10050000700500207005002031490143314A116017
:10051000704770B5002100230F22C47804B32D4C1E
:10052000246804F4E064C4F5E064210AC1F1040322
:10053000CA40447804FA03F1847814402143090145
:10054000254C0678A155047804F01F050124AC4021
:1005500005786D11AD0005F1E025C5F8004109E011
:10056000047804F01F050124AC401C4D0678761178
:1005700045F8264070BD1A4A0A400243154B1B1F1E
:100580001A60704739B1134A121D12680243114BA9
:100590001B1D1A6006E00F4A121D126882430D4BA4
:1005A0001B1D1A607047042808D14FF0E02109692B
:1005B00041F004014FF0E022116107E04FF0E0212B
:1005C000096921F004014FF0E02211617047000039
:1005D0000000FA050CED00E000E400E080E100E03E
:1005E00080FFFF1F002044490860091D0860091DA5
:1005F0000860091D086041483F4914310860704790
:1006000000213D498279002A3AD00A4612680368DF
:100610009A430B461A600A1D126803689A430B1D21
:100620001A60027911440A6803681A430A60324A60
:100630000832126803689A432F4B08331A601A1D58
:10064000126803689A432C4B0C331A604279102AC3
:100650000ED11A1F126803681A43274B08331A6019
:100660001A1D126803681A43234B0C331A600DE0FD
:100670002149427911440A6803681A430A6005E077
:10068000027911440A6803689A430A60704700219E
:10069000016001710C21417100218171704716497F
:1006A000103109680143144A103211607047014645
:1006B0000020114A143212680A400AB1012000E0F9
:1006C000002070470C491431086070470146002033
:1006D0000022094B1B6803EA0102074B14331B6815
:1006E0000B4013B10AB1012000E00020704702491D
:1006F000143108607047000000040140FFFF0F0044
:1007000010B50446CC48844208D10121042000F0F1
:100710002DFB0021042000F029FB46E0C74884425D
:1007200008D10121082000F021FB0021082000F061
:100730001DFB3AE0C248844208D10121102000F09C
:1007400015FB0021102000F011FB2EE0BD48844273
:1007500008D10121202000F009FB0021202000F019
:1007600005FB22E0B848844208D10121402000F076
:10077000FDFA0021402000F0F9FA16E0B348844267
:1007800008D10121802000F0F1FA0021802000F042
:10079000EDFA0AE0AE48844207D10121801500F04D
:1007A000E5FA0021A01500F0E1FA10BD10B5012115
:1007B000084600F0DBFA0021012000F0D7FA10BD56
:1007C0002DE9F041024600250026002000230024E8
:1007D000002791F803C00CF00F0591F803C00CF04E
:1007E000100CBCF1000F03D091F802C04CEA0505D3
:1007F00091F800C0BCF1000F31D0146800202BE04C
:100800004FF0010C0CFA00F3B1F800C00CEA03063B
:100810009E4220D183004FF00F0C0CFA03F7BC432B
:1008200005FA03FC4CEA040491F803C0BCF1280F5C
:1008300006D14FF0010C0CFA00FCC2F814C00AE01B
:1008400091F803C0BCF1480F05D14FF0010C0CFA30
:1008500000FCC2F810C0401C0828D1D31460B1F8C5
:1008600000C0BCF1FF0F34DD546800202EE000F121
:10087000080C4FF0010808FA0CF3B1F800C00CEABC
:1008800003069E4221D183004FF00F0C0CFA03F7B0
:10089000BC4305FA03FC4CEA040491F803C0BCF124
:1008A000280F05D100F1080C08FA0CF8C2F81480E2
:1008B00091F803C0BCF1480F07D100F1080C4FF0CC
:1008C000010808FA0CF8C2F81080401C0828CED3A2
:1008D0005460BDE8F0814FF6FF7101800221817004
:1008E0000421C17070470246002093680B400BB191
:1008F000012000E0002070470146886880B2704700
:1009000002460020D3680B400BB1012000E000201C
:1009100070470146C86880B2704701617047416105
:1009200070470AB1016100E041617047C1607047E2
:100930004FF480320A4382618161826182698269F7
:10094000704702460020434B18684FF680731840EA
:1009500040EA021008433F4B186070473E49C861A7
:100960007047F0B50A46002300240021002500F05E
:100970000046B6F1004F02D1364EF16901E0354E26
:100980007168C0F3034583B200F44016B6F5401F0A
:1009900008D121F070612F4E766826F070662D4FD9
:1009A0007E6012E000F48016B6F5801F06D10326A3
:1009B00006FA05F4A14341F0706106E0460D3601E8
:1009C00003FA06F6B14341F0706122B1460D3601DB
:1009D00003FA06F6314300F00046B6F1004F02D1AB
:1009E0001C4EF16101E01B4E7160F0BD30B500227C
:1009F0008B071C0F0F2303FA04F2164B08338C10DD
:100A000053F824309343134C08348D1044F82530A8
:100A100023468C1053F824308C07240F00FA04F47A
:100A200023430C4C08348D1044F8253030BD0A495E
:100A3000DC3108607047000000080140000C0140F4
:100A4000001001400014014000180140001C01404A
:100A5000002001400000014000002042DF48006803
:100A600040F00100DD49086008464068DC49084064
:100A7000DA49486008460068DA490840D749086002
:100A80000846006820F4802008600846406820F48A
:100A9000FE0048604FF41F0088607047CF49096826
:100AA00021F48031CD4A11601146096821F480217A
:100AB0001160B0F5803F03D0B0F5802F0ED106E075
:100AC000C649096841F48031C44A116007E0C3494E
:100AD000096841F4A021C14A116000E000BF00BFD5
:100AE000704710B501460022002300204A11012A58
:100AF00002D1BA4C236806E0022A02D1B74C236A1D
:100B000001E0B64C636A01F01F02012494401C40CE
:100B10000CB1012000E0002010BD38B5002000908D
:100B20000024002500BF3120FFF7DBFF05460098B9
:100B3000401C00900098B0F5A06F01D0002DF2D0BD
:100B40003120FFF7CEFF08B1012400E00024204649
:100B500038BD01460020A14A106820F0F80040EAA4
:100B6000C10010607047A04908607047024600202D
:100B70009A4B586820F47C1042EA01031843974BC3
:100B80005860704798490866704701460020934AAC
:100B9000506820F003000843506070478F48406859
:100BA00000F00C007047014600208C4A506820F08D
:100BB000F00008435060704701460020874A5068A3
:100BC00020F4E06008435060704701460020834AEB
:100BD000506820F4605040EAC1005060704729B16D
:100BE0007E4A527A02437D4B5A7204E07B4A527A23
:100BF00082437A4B5A7270477B49D83108607047FC
:100C000001460020754A506820F440400843506077
:100C100070470021714A20321170704A82F820100A
:100C2000012802D004280AD104E001216B4A2032B5
:100C3000117005E00521694A2032117000E000BF03
:100C400000BF70476949086070476449096A0143F9
:100C5000624A11627047654944390860704730B58F
:100C600000210022002400235C4D6D6805F00C017A
:100C700021B1042905D0082923D105E05C4D056088
:100C800022E05B4D05601FE0544D6D6805F4701265
:100C9000524D6D6805F48034022505EB92421CB973
:100CA000544D554305600BE04C4D6D6805F400351F
:100CB0001DB1504D5543056002E04D4D5543056053
:100CC00002E04B4D056000BF00BF444D6D6805F06C
:100CD000F0010909484D6B5C0568DD4045603F4DFA
:100CE0006D6805F4E061090A434D6B5C4568DD40C1
:100CF00085603A4D6D6805F46051C90A3E4D6B5CE4
:100D00004568DD40C560354D6D6805F44041890B8F
:100D10003A4D6B5CC568B5FBF3F5056130BD29B193
:100D20002E4A526902432D4B5A6104E02B4A526904
:100D300082432A4B5A61704729B1284A926902437B
:100D4000264B9A6104E0254A92698243234B9A61BB
:100D5000704729B1214AD2690243204BDA6104E08D
:100D60001E4AD26982431D4BDA61704729B11B4A82
:100D7000D2680243194BDA6004E0184AD268824311
:100D8000164BDA60704729B1144A12690243134BBB
:100D90001A6104E0114A12698243104B1A617047CC
:100DA00012494039086070470F49C86470470B49C1
:100DB000C87170470948406A40F08070074948622E
:100DC000704701460020054A92680A400AB1012096
:100DD00000E000207047014988727047001002400F
:100DE0000000FFF8FFFFF6FE00004242800442428E
:100DF00000127A0000093D00B8000020C800002061
:100E000010B50446FE48844208D10121C014FFF702
:100E1000ADFF0021E014FFF7A9FFC4E0B4F1804F5B
:100E200008D101210846FFF7AEFF00210120FFF79E
:100E3000AAFFB8E0F348844208D101210220FFF75D
:100E4000A2FF00210220FFF79EFFACE0EE488442A3
:100E500008D101210420FFF796FF00210420FFF7AD
:100E600092FFA0E0E948844208D101210820FFF761
:100E70008AFF00210820FFF786FF94E0E4488442BF
:100E800008D101211020FFF77EFF00211020FFF77D
:100E90007AFF88E0DF48844208D101212020FFF753
:100EA00072FF00212020FFF76EFF7CE0DA488442C9
:100EB00008D101214014FFF759FF00216014FFF70A
:100EC00055FF70E0D548844209D10121C804FFF7DD
:100ED0004DFF00214FF40020FFF748FF63E0D048AA
:100EE000844209D101210805FFF740FF00214FF49A
:100EF0008010FFF73BFF56E0CA48844209D1012128
:100F00004805FFF733FF00214FF40010FFF72EFFD5
:100F100049E0C548844208D101214020FFF733FF52
:100F200000214020FFF72FFF3DE0C048844208D158
:100F300001218020FFF727FF00218020FFF723FFFA
:100F400031E0BB48844208D101218015FFF71BFF27
:100F50000021A015FFF717FF25E0B648844209D10C
:100F600001210804FFF702FF00214FF48030FFF752
:100F7000FDFE18E0B048844209D101214804FFF782
:100F8000F5FE00214FF40030FFF7F0FE0BE0AB4818
:100F9000844208D101218804FFF7E8FE00214FF4C4
:100FA0008020FFF7E3FE10BD00220288944B984298
:100FB0000ED0994B98420BD0B0F1804F08D0914B96
:100FC000984205D0904B984202D0904B984204D161
:100FD0004FF68F731A404B881A438D4B984207D0B7
:100FE0008C4B984204D04FF6FF431A40CB881A43EB
:100FF00002808B8883850B880385814B98420BD0B8
:10100000854B984208D08B4B984205D08A4B98422A
:1010100002D08A4B984201D10B7A03860123838246
:10102000704770B5002400220023058C4FF6FE7631
:1010300035400584028C8388048B4FF68F752C40D5
:10104000B51E2C400D882C43751E2A400D892A435D
:101050004D882A436A4DA8420BD06F4DA84208D054
:10106000744DA84205D0744DA84202D0734DA842D9
:1010700013D14FF6F7752A404D892A434FF6FB7579
:101080002A408D882A434FF6FF652B404FF6FF55C7
:101090002B408D892B43CD892B4383800483CD88BE
:1010A0008586028470BD70B5002400220023058C63
:1010B0004FF6EF7635400584028C8388048B48F622
:1010C000FF752C404FF6FF452C400D884FF6FF76FC
:1010D00006EA05252C434FF6DF752A400D8906EAFE
:1010E00005152A434D8806EA05152A43444DA842B2
:1010F00002D0494DA8421DD14FF67F752A404D8937
:101100004FF6FF7606EA05152A434FF6BF752A40CB
:101110008D8806EA05152A434FF6FF352B404FF21E
:10112000FF752B408D8906EA85052B43CD8906EA9C
:1011300085052B4383800483CD880587028470BD99
:1011400070B5002400220023058C4FF6FF66354061
:101150000584028C8388848B4FF68F752C404FF664
:10116000FC752C400D882C434FF6FF552A400D8905
:101170004FF6FF7606EA05252A434D8806EA05253F
:101180002A431F4DA84202D0234DA8421DD14FF241
:10119000FF752A404D894FF6FF7606EA05252A435A
:1011A0004FF6FF352A408D8806EA05252A434EF67C
:1011B000FF752B404DF6FF752B408D8906EA05150E
:1011C0002B43CD8906EA05152B4383808483CD8884
:1011D0008587028470BD70B5002200230024058C31
:1011E0004EF6FF7635400584038C8488828B48F662
:1011F000FF752A404FF6FF452A400D8820E0000089
:10120000002C01400004004000080040000C004099
:10121000001000400014004000340140004C014028
:10122000005001400054014000180040001C0040E4
:1012300000200040004001400044014000480140BF
:101240004FF6FF7606EA05252A434DF6FF752B403B
:101250000D8906EA05352B434D8806EA05352B43F3
:10126000FA4DA84202D0FA4DA84208D14BF6FF75BC
:101270002C408D894FF6FF7606EA85152C43848035
:101280008283CD88A0F84050038470BD828B4FF2DA
:10129000FF331A408283828B4FF6FF7303EA0123E8
:1012A0001A4382837047F0B50C4615460022002190
:1012B0000026078C4EF6FF7C07EA0C070784828B1A
:1012C000018C4FF6FF7707EA043640F6FF473A40B5
:1012D0004FF6FF7707EA05273A434FF6FF7707EA0D
:1012E00003373A43D94FB8420ED0D94FB8420BD04A
:1012F000B0F1804F08D0D74FB84205D0D64FB84292
:1013000002D0D64FB84206D14DF6FF77394046F4A9
:101310008057394305E047F6FF57394044F480577A
:10132000394382830184F0BD828B4FF6F3731A40F8
:101330008283828B0A4382837047F0B50C46154640
:10134000002200210026078C4FF6FF6C07EA0C07ED
:101350000784828B018C4FF6FF7707EA04264FF64D
:101360000C773A404FF6FF7707EA03172F433A43CB
:10137000B64FB8420ED0B64FB8420BD0B0F1804F46
:1013800008D0B44FB84205D0B34FB84202D0B34FE3
:10139000B84206D14FF6FF57394046F480773943BB
:1013A00005E04FF2FF57394044F480773943828398
:1013B0000184F0BD028B4FF2FF331A400283028B8F
:1013C0004FF6FF7303EA01231A4302837047F0B517
:1013D0000C461546002200210026078C4FF6EF7CB4
:1013E00007EA0C070784028B018C4FF6FF7707EAA8
:1013F000041640F6FF473A404FF6FF7707EA0337F7
:101400003A434FF6FF7707EA05273A438F4FB84232
:101410000ED08F4FB8420BD0B0F1804F08D08D4F17
:10142000B84205D08C4FB84202D08C4FB84206D19A
:101430004FF6DF77394046F01007394305E04FF6A5
:101440005F77394044F01007394302830184F0BDCF
:10145000028B4FF6F3731A400283028B0A43028316
:101460007047F0B50C46154600220021068C4FF659
:10147000FE773E400684028B018C4FF60C7632409C
:101480007E1C06EA03162E433243704EB0420ED045
:101490006F4EB0420BD0B0F1804F08D06D4EB042CD
:1014A00005D06D4EB04202D06C4EB04206D14FF620
:1014B000FD76314044F00106314305E04FF6F57604
:1014C000314044F00106314302830184F0BD70B520
:1014D00005460C465D4885420ED05D4885420BD0DE
:1014E000B5F1804F08D05B48854205D05A48854207
:1014F00002D05A48854200D100E000BF208850B990
:101500002389A28861882846FFF7ABFFE188284637
:10151000FFF79EFF25E0208804280AD12389A288AE
:1015200061882846FFF753FFE1882846FFF742FF0E
:1015300017E0208808280AD12389A28861882846D4
:10154000FFF7FBFEE1882846FFF7EEFE09E023895E
:10155000A28861882846FFF7A6FEE1882846FFF7A3
:1015600095FE70BD2DE9F04105460C460026012789
:10157000608808B9022600E00026A088012801D171
:10158000022700E001272088A0B92389A28861886A
:101590002846FFF766FFE1882846FFF759FF2389B1
:1015A0003A4631462846FFF712FFE1882846FFF702
:1015B00001FF13E02389A28861882846FFF707FF0F
:1015C000E1882846FFF7F6FE23893A463146284649
:1015D000FFF747FFE1882846FFF73AFFBDE8F081B3
:1015E0000A884B881A438B881A43CB881A430B8985
:1015F0001A434B891A438B891A43A0F84420704739
:101600004FF6FF71818000210180C180418001720D
:1016100070470021018041808180C180018141812A
:101620008181C18170470021018041800121818039
:101630000021C180018170470021018041808180AB
:10164000C18001814181818170470000002C0140EF
:10165000003401400004004000080040000C00403D
:1016600021B1028842F00102028004E002884FF6B4
:10167000FE731A400280704731B1B0F8442042F442
:101680000042A0F8442005E0B0F84420C2F30E0266
:10169000A0F8442070471AB183890B43838102E08C
:1016A00083898B43838170478182704741EA0203BB
:1016B000A0F8483070471AB183890B43838102E058
:1016C00083898B438381704701894FF6F8721140FB
:1016D000018170470A46002101894FF68F73194036
:1016E00011430181704730B504460D462946204616
:1016F000FFF7F0FF208940F00700208130BD2DE981
:10170000F04104460D4616461F46602D06D13B4665
:10171000012231462046FFF75AFE05E03B460122F2
:1017200031462046FFF79DFE29462046FFF7D2FFAF
:10173000208940F007002081BDE8F08130B50C46DB
:1017400000210189C9B24FF6FF7505EA032515434B
:1017500025432943018130BD2DE9F04105460E4660
:1017600017469846002443463A4631462846FFF736
:10177000E5FF2C894FF6F870044044F007044FF65B
:101780008F70044044F070042C81BDE8F081F0B506
:1017900004460D4616461F463B463246294620461D
:1017A000FFF7CCFF208940F480402081F0BD018507
:1017B000828270470A46002101884FF68F731940D4
:1017C000114301807047F0B50C4615461E460021B6
:1017D000002200230189028B038C4FF6F8773940F1
:1017E00021434FF6FC473A4040F201173A434FF687
:1017F000DD773B404FF6FF7707EA06172F433B4361
:10180000018102830384F0BD0A460021018B4FF65B
:101810008F7319401143018370470A460021018BE1
:1018200048F6FF7319404FF6FF7303EA022319438A
:10183000018370470A460021818B4FF68F73194050
:101840001143818370470A460021818B48F6FF735C
:1018500019404FF6FF7303EA02231943818370474F
:1018600021B1028842F08002028004E002884FF633
:101870007F731A400280704721B1828842F00402CF
:10188000828004E082884FF6FB731A4082807047A2
:1018900021B1828842F00802828004E082884FF6FB
:1018A000F7731A408280704721B1828842F00102AA
:1018B000828004E082884FF6FE731A40828070476F
:1018C0000A460021018B4FF6F7731940114301833B
:1018D00070470A460021018B4FF2FF7319404FF603
:1018E000FF7303EA02231943018370470A4600216C
:1018F000818B4FF6F77319401143818370470A4675
:101900000021818B4FF2FF7319404FF6FF7303EAFA
:1019100002231943818370470A460021018B4FF649
:10192000FB7319401143018370470A460021018B64
:101930004FF6FF3319404FF6FF7303EA02231943B2
:10194000018370470A460021818B4FF6FB731940D3
:101950001143818370470A460021818B4FF6FF3384
:1019600019404FF6FF7303EA02231943818370473E
:101970000A460021018B4FF67F7319401143018302
:1019800070470A460021018BC1F30E014FF6FF7329
:1019900003EA02231943018370470A460021818B21
:1019A0004FF67F7319401143818370470A46002127
:1019B000818BC1F30E014FF6FF7303EA0223194333
:1019C000818370470A460021018C4FF6FD73194050
:1019D0001143018470470A460021018C4FF6F773CA
:1019E00019401143018470470A460021018C4FF6CB
:1019F000DF7319404FF6FF7303EA021319430184A2
:101A000070470A460021018C4FF67F7319404FF64C
:101A1000FF7303EA02131943018470470A46002149
:101A2000018C4FF6FF5319404FF6FF7303EA022370
:101A30001943018470470A460021018C4FF2FF735D
:101A400019404FF6FF7303EA0223194301847047DC
:101A50000A460021018C4DF6FF7319404FF6FF73C3
:101A600003EA023319430184704730B5002301248F
:101A70008C40A3B2048C9C430484048C02FA01F5CC
:101A8000ADB22C43048430BD30B5002304248C4017
:101A9000A3B2048C9C430484048C02FA01F5ADB219
:101AA0002C43048430BD70B5034600200024184642
:101AB000183001258D40ACB21D8CA5431D8409B1A1
:101AC000082909D100EB6100056825F07005056063
:101AD0000568154305600EE00D1FC5F34E0528444B
:101AE000056825F4E045056005684FF6FF7606EACF
:101AF00002263543056070BD21B1028842F0020222
:101B0000028004E002884FF6FD731A40028070479D
:101B100021B1028842F00402028004E002884FF6FC
:101B2000FB731A400280704721B1828842F0800224
:101B3000828004E082884FF67F731A40828070476B
:101B400002884FF6F7731A40028002880A43028027
:101B5000704782884FF68F731A40828082880A43CA
:101B60008280704702894FF6F8731A400281028919
:101B70000A430281704702894FF67F731A4002813F
:101B800002890A43028170478184704781857047CA
:101B9000818670470187704781877047A0F84010A1
:101BA000704702884FF6FF431A40028002880A43BA
:101BB000028070470146888E70470146088F704743
:101BC0000146888F70470146B1F8400070470146D2
:101BD000888C70470146088D704702460020138AA2
:101BE0000B400BB1012000E000207047CA43028285
:101BF000704730B50246002000230024158A05EA0C
:101C00000103958905EA010413B10CB1012000E03C
:101C1000002030BDCA4302827047000010B5044660
:101C2000FB48844209D101218803FFF79FF8002176
:101C30004FF48040FFF79AF832E0F648844209D129
:101C400001214804FFF79FF800214FF40030FFF70F
:101C50009AF825E0F048844209D101218804FFF771
:101C600092F800214FF48020FFF78DF818E0EB4840
:101C7000844209D10121C804FFF785F800214FF4FF
:101C80000020FFF780F80BE0E548844208D10121ED
:101C90000805FFF778F800214FF48010FFF773F87C
:101CA00010BD2DE9F04786B005460E460024A24639
:101CB00000BFA1460027B08900B100BF2F462C8A83
:101CC0004CF6FF700440F08804432C82AC894EF639
:101CD000F3100440B08831890843718908430443F4
:101CE000AC81AC8A4FF6FF400440B0890443AC821B
:101CF00001A8FEF7B4FFC648874202D1DDF810A064
:101D000001E0DDF80CA0A88900F4004040B10AEB26
:101D1000CA0000EB0A1031684900B0FBF1F807E097
:101D20000AEBCA0000EB0A1031688900B0FBF1F839
:101D30006420B8FBF0F004012009642101FB108944
:101D4000A88900F4004040B1322000EBC900B0FB8C
:101D5000F1F000F00700044308E0322000EB091026
:101D60006421B0FBF1F000F00F0004432C8106B0B9
:101D7000BDE8F0874FF41651016000218180C180D9
:101D800001810C21418100218181704710B50246FB
:101D90000020108A4FF2FF0318400B884C88234321
:101DA0008C882343CC8823431843108210BD002124
:101DB000018041808180C180704721B1828942F4D5
:101DC0000052828104E082894DF6FF731A408281BD
:101DD0007047F0B50346002400260025002040F699
:101DE0006A17B94200D100BF1846C1F3421401F08E
:101DF0001F06012707FA06F5012C01D10C3004E07B
:101E0000022C01D1103000E014301AB107682F43C2
:101E1000076002E00768AF430760F0BD1AB1838A2C
:101E20000B43838202E0838A8B4383827047028A5A
:101E30004FF6F0731A400282028A0A430282704708
:101E400082894FF2FF731A40828182890A4382811C
:101E5000704721B1828942F00202828104E08289C6
:101E60004FF6FD731A4082817047028A4FF6DF7386
:101E70001A400282028A0A430282704721B1028A12
:101E800042F48042028204E0028A4BF6FF731A4059
:101E900002827047C1F30802828070470146888839
:101EA000C0F308007047818941F0010181817047CA
:101EB000028BD2B20283028B42EA01220283704774
:101EC000028B02F47F420283028B0A430283704733
:101ED00021B1828A42F02002828204E0828A4FF697
:101EE000DF731A408282704721B1828A42F0100269
:101EF000828204E0828A4FF6EF731A408282704732
:101F000021B1828A42F00802828204E0828A4FF67E
:101F1000F7731A408282704721B1828942F40042ED
:101F2000828103E08289C2F30E028281704721B16F
:101F3000828A42F40062828204E0828A4FF2FF7356
:101F40001A4082827047828A4FF6FB731A4082825F
:101F5000828A0A438282704721B1828A42F0020259
:101F6000828204E0828A4FF6FD731A4082827047B3
:101F700002460020B1F5007F00D100BF13880B405E
:101F80000BB1012000E00020704701F40072B2F5AF
:101F9000007F00D100BFCA430280704770B502467F
:101FA000002400230025002040F66A16B14200D12B
:101FB00000BFC1F3421501F01F03012606FA03F327
:101FC000012D02D19689334006E0022D02D1168AF6
:101FD000334001E0968A33400C12012606FA04F4DD
:101FE0001688344013B10CB1012000E0002070BD10
:101FF00010B50022002340F66A14A14200D100BFB0
:102000000A1201249440A3B2DC43048010BD0000F6
:10201000003801400044004000480040004C0040AF
:1020200000500040A34A0A400243A34B1A60704785
:102030000146072323EA010212029F4B1B1D186869
:102040004FF6FF0318409D4B184310439A4B1B1D3E
:10205000186070472DE9F0410746884614461D4632
:102060002846FFF7E5FFC5F1040007FA00F60F2048
:10207000284100EA0800064306F00F06E21704EBC9
:10208000D2625211920002F1E022D2F800212146E0
:10209000E31704EBD3635B11A4EB431C012303FAA6
:1020A0000CF31A432046E31704EBD3635B119B0048
:1020B00003F1E023C3F800218148005D40EA0610E7
:1020C0007F490855BDE8F08170B504460B46CE1730
:1020D00001EB9676C6F38700CE1701EB9676B61025
:1020E000A1EB8606B606350E764B9B6943F00103DD
:1020F000744EB3614FEAB63353F820300F26AE402A
:10210000B343714E46F82030334653F8203004FA7A
:1021100005F61E436C4B43F820606C4B1B68012690
:102120008E403343694E336002F0010343B1674B85
:102130000C331B6801268E403343644E0C363360EB
:1021400002F0020343B1614B08331E6801238B4048
:102150001E435E4B08331E6070BD00B50020594918
:102160000861C8601420486100208861C861084681
:10217000006840F001000860084640685449084083
:102180005049486008460068524908404D49086077
:102190000846006820F4802008600846406820F463
:1021A000FE0048600020886000214FF00060FFF7CB
:1021B00039FF00BD10B540480830006840F0040009
:1021C0003D49083108603F48C06940F080503D49B2
:1021D000C8614148406840F480703F494860084603
:1021E000006840F0040008600846006840F0020003
:1021F0000860FDF7EDFF10BD3048001D2E49091D98
:1022000008607047014649062E4A926942F0010271
:102210002C4B9A612C4A083A526822F0E0622A4B11
:10222000083B5A601A4652680A435A60704730B5F4
:1022300004460025FFF791FF2248006840F48030F3
:102240002049086000BF1F480068400C0028FAD0F1
:102250004FF480601B494860A01EC4B20846406825
:1022600040EA844048600846406840F48030486056
:102270001A48006840F032001849086011480068A8
:1022800040F080700F49086000BF0E480068400EA3
:102290000028FAD00B48406840F002000949486025
:1022A00005E008484068C0F3870505F00305022DE6
:1022B000F7D130BD80FFFF1F08ED00E00000FA05F8
:1022C00000E400E00010024008000140000401406A
:1022D0000000FFF8FFFFF6FE007000400020024003
:1022E00010B56FF00400FEF75EF92E4800682E4925
:1022F000B0FBF1F02D4908700846007800EB400172
:10230000C1EBC0104FF6FF7101EAC00028490880F8
:1023100010BD0146254A12784A434FF0E0235A6126
:1023200000229A611A46126942F001021A6100BF46
:102330004FF0E022106900F001021AB100F480327F
:10234000002AF5D04FF0E022126922F001024FF08E
:10235000E0231A6100229A6170470146144A1288EC
:102360004A434FF0E0235A6100229A611A461269EB
:1023700042F001021A6100BF4FF0E022106900F044
:1023800001021AB100F48032002AF5D04FF0E022A9
:10239000126922F001024FF0E0231A6100229A61D3
:1023A00070470000A400002000127A00CC0000203A
:1023B000CE00002000BF70472C4A12785AB900BFE7
:1023C0002B4A128802F04002002AF9D0C2B2284BF0
:1023D0001B1D1A800AE000BF264A128802F0400244
:1023E000002AF9D0C2B2234B1B1D1A80704710B5CA
:1023F00086B00446012144F20400FEF79DFC4FF430
:102400000070ADF8140003208DF8160018208DF828
:10241000170005A91848FEF7D3F94FF48060ADF80E
:10242000140004208DF8170005A91348FEF7C8F919
:1024300001940020ADF80800ADF80A00ADF80C00DA
:10244000ADF810000C20ADF80E0001A90948FFF707
:1024500028FC002240F225510648FFF7BAFC012172
:102460000448FFF7AAFC06B010BD000002000020DF
:1024700000480040003801400008014008B5012133
:102480001020FEF759FC4FF40050ADF8000010206A
:102490008DF8030003208DF8020069461948FEF705
:1024A0008FF908BD18B90021174A11600FE01749CC
:1024B0000968491C154A1160814208D1124909680E
:1024C000C943134AC2F890110021104A11607047A5
:1024D00010B5002412E04FF400510A48FEF71DFA2F
:1024E0004FF47A70FFF739FF4FF400510548FEF7BB
:1024F00016FA4FF47A70FFF730FF641C032CEADB06
:1025000010BD00000010014090012142D4000020C5
:102510000000214208B501210820FEF70DFC4FF410
:102520007040ADF8000010208DF8030003208DF8F6
:10253000020069462A48FEF743F908BD30B589B064
:1025400005460C46FFF7E6FF0121C802FEF7F4FB43
:1025500001210420FEF7F0FB4FF41060ADF82000DD
:1025600018208DF8230003208DF8220008A91D48AB
:10257000FEF726F9ADF81850ADF814400020ADF87C
:102580001A00ADF8160005A91748FEF70DFD6020EA
:10259000ADF804000120ADF806000020ADF80A00F7
:1025A000ADF80C0001A91048FEF73BFD01A90E484B
:1025B000FEF711FE01210C48FFF75EF808210A48DA
:1025C000FFF77EF908210848FFF799F9012106482D
:1025D000FFF746F901210448FFF742F809B030BD82
:1025E000000C014000080140002C014000B587B0FC
:1025F00001210846FEF7ADFB01210420FEF79CFBFC
:1026000004208DF81B000320ADF818008DF81A0087
:1026100006A96E48FEF7D4F80020ADF81200ADF818
:102620000E004FF6FF70ADF810000020ADF80C0062
:102630008DF8140003A94FF08040FEF7B5FC684602
:10264000FEF7F1FF0020ADF800000F20ADF8080004
:1026500069464FF08040FEF73AFF0420ADF80000D5
:102660000F20ADF8080069464FF08040FEF72FFFBD
:1026700000231A4603214FF08040FFF7A4F8012100
:102680008807FFF7B3FA012211469007FFF703F816
:1026900000214FF08040FFF777FA01218807FEF70D
:1026A000DFFF07B000BD00B587B001210420FEF7B1
:1026B00050FB01210820FEF73FFB04208DF81B0092
:1026C000C020ADF8180003208DF81A0006A93F4875
:1026D000FEF776F80020ADF81200ADF80E004FF6C8
:1026E000FF70ADF810000020ADF80C008DF814005C
:1026F00003A93748FEF758FC6846FEF794FF002010
:10270000ADF800000F20ADF8080069464FF080409A
:10271000FEF7DDFE0420ADF800000F20ADF8080044
:1027200069464FF08040FEF7D2FE00231A4603218F
:102730002748FFF748F801212548FFF757FA0122FB
:1027400011462348FEF7A7FF00212148FFF71CFA96
:1027500001211F48FEF784FF07B000BD70B5054694
:10276000022D02D0042D14D10AE04FF08040FFF773
:102770002EFA044600214FF08040FFF705FA0AE0E8
:102780001348FFF724FA044600211148FFF7FCF92B
:1027900001E06F2400BF00BF204670BD0C48103020
:1027A00000880B481030008820F0010008491031E3
:1027B000088070474FF08040008A4FF08040008AC8
:1027C00020F001004FF0804108827047000801406E
:1027D0000008004008B501210820FEF7ADFA4FF4CB
:1027E0004070ADF8000010208DF8030003208DF834
:1027F00002006946F748FDF7E3FF08BD10B5F5484C
:10280000001D006820F0F000F249091D086008462C
:10281000006840F0300008600120EF490860EF4890
:10282000D0F8240108B9002010BD0120EA49091F91
:102830000860FFF76EFD0020E849C1F8A401E648F2
:102840008038006808B10020EEE70120FFF761FD45
:102850000020E149091F08600120E5E710B5DD48C7
:10286000001D006820F0F000DA49091D08600846E4
:10287000006840F0300008600020D749091F086058
:10288000D649C1F8A4010120FFF743FD0120D24938
:10289000091F0860D149C1F8A401FFF73AFD10BD36
:1028A00010B50024CB48001D006820F0F000C94995
:1028B000091D08600846006840F08000086001209B
:1028C000C5490860FFF725FD0120C449C1F8A001F2
:1028D000FFF71FFD0AE0601CC4B2322C03DDFFF7D6
:1028E000BDFF002010BD0120FFF713FDBA4880385E
:1028F00000680028EFD1B849091F08600120F1E7FE
:1029000010B50020B449091F0860B248001D0068D6
:1029100020F0F000AF49091D08600846006840F04B
:10292000300008600020AD49C1F8A4010120FFF784
:10293000F0FC0120A849091F0860FFF7EAFC00200D
:10294000A649C1F8A00110BD10B50020A249091F79
:102950000860A048001D006820F0F0009D49091D96
:1029600008600846006840F03000086001209B497C
:10297000C1F8A401FFF7CDFC01209749091F0860A9
:10298000FFF7C7FC00209549C1F8A00110BD70B544
:1029900004469048001D006820F0F0008D49091D94
:1029A00008600846006840F03000086000208A494E
:1029B000091F0860002516E0E009874908606006E5
:1029C000040E0120FFF7A5FC01208449C1F8A001F5
:1029D000FFF79FFC00208049091F08600120FFF7D6
:1029E00098FC681CC5B2082DE6DB70BD2DE9F041EE
:1029F00005460E4617469846FFF700FF10B901201E
:102A0000BDE8F0816906080EFFF7C1FFFFF748FF38
:102A100018B9FFF723FF0120F2E73046FFF7B7FFB1
:102A2000FFF73EFF00240BE018F80400FFF7AFFFAC
:102A3000FFF736FF18B9FFF711FF0020E0E7641C2D
:102A4000BC42F1DBFFF70AFF0020D9E770B505466D
:102A500000246048001D006820F0F0005D49091D59
:102A600008600846006840F080000860002617E013
:102A700000205949091F08600220FFF74AFC012085
:102A80005649C1F8A0016006040E5348803800681A
:102A900008B1601CC4B20220FFF73BFC701CC6B238
:102AA000082EE5DB15B1FFF72BFF01E0FFF74CFF28
:102AB000204670BD2DE9F04106460F4614461D46DE
:102AC000FFF79CFE10B90120BDE8F0817106080EE9
:102AD000FFF75DFFFFF7E4FE18B9FFF7BFFE012027
:102AE000F2E73846FFF753FFFFF7DAFEFFF786FEFF
:102AF000012101EB4601C8B2FFF749FFFFF7D0FE05
:102B00000DE0012C04D10020FFF7A0FF287003E0A6
:102B10000120FFF79BFF28706D1C601EC4B2002CC3
:102B2000EFD1FFF79BFE0020CEE770B505460E46BD
:102B30000024FFF763FE2846FFF729FF641CFFF718
:102B4000AFFE3046FFF723FF641CFFF7A9FEFFF737
:102B500055FE691CC8B2FFF71AFF641CFFF7A0FE00
:102B60000020FFF773FF0446FFF778FE204670BD94
:102B70002DE9F0410746884615461E460024FFF71A
:102B80003DFE3846FFF703FFFFF78AFE4046FFF79A
:102B9000FEFEFFF785FEFFF731FE791CC8B2FFF796
:102BA000F6FEFFF77DFE00BF0DE0681EA04204D0D8
:102BB0000120FFF74BFF305503E00020FFF746FFF1
:102BC0003055601CC4B2AC42EFDBFFF747FE204635
:102BD000BDE8F081000C0140A48121420080214227
:102BE0002DE9F04180460D4616461F460024FFF7AA
:102BF00005FE4046FFF7CBFEFFF752FE2846FFF7E3
:102C0000C6FEFFF74DFE00BF06E0385DFFF7BFFED2
:102C1000FFF746FE601CC4B2B442F6DBFFF71EFEAF
:102C20000120BDE8F08170B505460E4614463146D8
:102C30002846FFF77AFF2070012070BD37B50446A3
:102C40000D4602AB012229462046FFF7C9FF3EBDD3
:102C50002DE9F8430746884614461D46089E6A46F5
:102C600041463846FFF7DFFF28B3601CFF2101FA19
:102C700000F0C4F108012944491EFF220A41104313
:102C800000F0FF09C5F1080006FA00F0C6B2C4F171
:102C9000070006419DF8000000EA090000909DF839
:102CA0000000304300909DF8002041463846FFF771
:102CB000C5FFBDE8F8830020FBE7F8B506460F46E0
:102CC00014461D466A4639463046FFF7ACFF2DB123
:102CD0000120A0409DF80010084305E00120A0401D
:102CE0009DF8001021EA0000C0B200909DF800207D
:102CF00039463046FFF7A2FFF8BD00001FB501219D
:102D00000846FEF719F801210420FEF715F84FF4E4
:102D10008050ADF80C0048208DF80F0003A98548BD
:102D2000FDF74EFD0C210020FDF760FE4FF48050B2
:102D3000019000208DF808000C208DF8090001207A
:102D40008DF80A0001A8FDF75BFC28208DF8000033
:102D500002208DF8010001208DF802008DF803009B
:102D60006846FDF7D6FB1FBD1FB501210846FDF7DC
:102D7000E3FF01210420FDF7DFFF2020ADF80C0068
:102D800048208DF80F0003A96A48FDF719FD0521B9
:102D90000020FDF72BFE2020019000208DF8080078
:102DA0000C208DF8090001208DF80A0001A8FDF71C
:102DB00027FC17208DF8000002208DF8010001206B
:102DC0008DF802008DF803006846FDF7A2FB1FBDD9
:102DD00010B52020FDF77AFC01280CD15648007868
:102DE00008B9012000E00020534908700020534931
:102DF0000860534908602020FDF779FC10BD1FB51D
:102E000001210846FDF798FF01210420FDF794FFFA
:102E10000420ADF80C0048208DF80F0003A94548A8
:102E2000FDF7CEFC02210020FDF7E0FD042001901B
:102E300000208DF808000C208DF8090001208DF885
:102E40000A0001A8FDF7DCFB08208DF80000022035
:102E50008DF8010001208DF802008DF8030068460E
:102E6000FDF757FB1FBD10B50420FDF72FFC01280F
:102E700011D134480078022805DA32480078401C25
:102E80003049087002E001202E49087000202C49CA
:102E900008602A4908600420FDF729FC10BD1FB511
:102EA00001210846FDF748FF01210420FDF744FFFA
:102EB0000820ADF80C0048208DF80F0003A91D482C
:102EC000FDF77EFC03210020FDF790FD0820019016
:102ED00000208DF808000C208DF8090001208DF8E5
:102EE0000A0001A8FDF78CFB09208DF800000220E4
:102EF0008DF8010001208DF802008DF8030068466E
:102F0000FDF707FB1FBD10B50820FDF7DFFB01280B
:102F10000CD10948007808B9012000E000200649DA
:102F20000870002005490860054908600820FDF781
:102F3000DEFB10BD00080140800000207C00002066
:102F4000900000208100002010B586B004460121C9
:102F50000420FDF7F1FE01218803FDF7EDFE4FF49B
:102F60000070ADF8140003208DF8160018208DF8BD
:102F7000170005A95B48FDF723FC4FF48060ADF80E
:102F8000140004208DF8170005A95648FDF718FC19
:102F900025208DF8000000208DF8010001208DF81B
:102FA00002008DF803006846FDF7B3FA0194002093
:102FB000ADF80800ADF80A00ADF80C00ADF810004F
:102FC0000C20ADF80E0001A94748FEF76AFE012269
:102FD00040F225514448FEF7FCFE01214248FEF72D
:102FE000ECFE06B010BD10B540F225513E48FEF78C
:102FF000D5FF002866D03C48FEF750FF3B490860EB
:10300000084600783A4908703848006859280AD1BB
:103010003848007808B9012000E0002035490870E0
:103020000020354908703148006800281DDD2F4810
:103030000068572805D103202F4908701E202F490A
:1030400008602A4800685A2805D103202A490870D8
:103050000B202A49086025480068412802D10C202D
:103060002649086003202449087020480068452844
:1030700005D10D202149086003201F4908701B4815
:103080000068422805D115201C49086003201A4910
:10309000087016480068462805D1162017490860B0
:1030A00003201549087011480068482805D11720E9
:1030B0001249086003201049087040F225510A485F
:1030C000FEF796FF10BD70B504460D462946204612
:1030D000FEF7E0FE00BF80212046FEF749FF0028F2
:1030E000F9D070BD0008014000380140DC0000202C
:1030F000D80000208000002081000020A0000020D7
:1031000008B501210820FDF717FE01210420FDF775
:1031100013FE14208DF8030003208DF802004FF4F5
:103120000040ADF800006946FB48FDF749FB202050
:10313000ADF800006946F948FDF742FB0122D103D2
:10314000F548FDF7EEFB01222021F448FDF7E9FBED
:1031500008BD10B501222021F048FDF7E2FB012255
:10316000D103ED48FDF7DDFB00222021EB48FDF700
:10317000D8FB00224FF40041E748FDF7D2FB10BD19
:1031800010B500222021E548FDF7CBFB0122D10339
:10319000E148FDF7C6FB01222021E048FDF7C1FB15
:1031A00010BD70B50546002418E08020204128405D
:1031B00008B1012000E0002002462021D748FDF799
:1031C000B0FB0122D103D448FDF7ABFB00224FF442
:1031D0000041D148FDF7A5FB601CC4B2082CE4DB1C
:1031E0000122D103CC48FDF79CFB00224FF40041A3
:1031F000C948FDF796FB70BD10B50446FFF7A9FF5F
:103200007820FFF7CEFF0020FFF7CBFF2046FFF727
:10321000C8FFFFF7B5FF10BD10B50446FFF799FFD3
:103220007820FFF7BEFF4020FFF7BBFF2046FFF7E7
:10323000B8FFFFF7A5FF10BD70B505460C4645F079
:10324000B000FFF7D9FF102141EA1410FFF7D4FFB7
:1032500004F00F00FFF7D0FF70BD70B500240EE042
:1032600000212046FFF7E8FF002504E00020FFF7DB
:10327000D3FF681CC5B2802DF8DB601CC4B2082CDB
:10328000EEDB70BD2DE9F04105460E461746721E75
:10329000D206110E6A1E5206100EFFF7CDFF002453
:1032A00009E0A7F120019E4A02EB0111085DFFF73A
:1032B000B3FF601CC4B2082CF3DB721ED206110EE1
:1032C0006A1E012303EB4202D0B2FFF7B5FF0024D0
:1032D0000BE0A7F12001924A02EB011204F1080170
:1032E000505CFFF799FF601CC4B2082CF1DBBDE80D
:1032F000F0812DE9F04107460E461546002407E00F
:103300002A5D3019C1B23846FFF7BCFF601CC4B259
:10331000285D0028F4D1BDE8F08110B502460120F7
:1033200000E050430B1EA1F10101FAD110BD2DE9BF
:10333000F04780460E4617461D46002415E0281B20
:10334000411E0A20FFF7E9FFB7FBF0F00A21B0FBAE
:10335000F1F201FB120000F130093019C1B24A4606
:103360004046FFF78FFF601CC4B2AC42E7DBBDE80C
:10337000F0872DE9F0478146884615461E46002D08
:1033800006DB2B2241464846FFF77CFF2F4605E02F
:103390002D2241464846FFF775FF6F42002417E093
:1033A000301B411E0A20FFF7B8FFB7FBF0F00A21DF
:1033B000B0FBF1F201FB120000F1300A08EB04004F
:1033C000401CC1B252464846FFF75CFF601CC4B2C5
:1033D000B442E5DBBDE8F0872DE9F04781460E46B3
:1033E00090461F4600241DE0381B411E1020FFF7A9
:1033F00094FFB8FBF0F000F00F050A2D08DA05F194
:103400003000C2B23019C1B24846FFF73BFF07E0B7
:1034100005F13700C2B23019C1B24846FFF732FF9A
:10342000601CC4B2BC42DFDBBDE8F0872DE9F04789
:1034300080460E4617461D46002412E0281B411EFA
:103440000220FFF76AFFB7FBF0F000F0010000F187
:1034500030093019C1B24A464046FFF713FF601CDD
:10346000C4B2AC42EADBBDE8F08770B5002406E0E8
:10347000002500E06D1CB5F57A7FFBD3641CB4F524
:103480007A7FF5D3FFF73CFEAE20FFF7B5FED520DF
:10349000FFF7B2FE8020FFF7AFFEA820FFF7ACFEDB
:1034A0003F20FFF7A9FED320FFF7A6FE0020FFF77D
:1034B000A3FE4020FFF7A0FEA120FFF79DFEC8203D
:1034C000FFF79AFEDA20FFF797FE1220FFF794FE2F
:1034D0008120FFF791FECF20FFF78EFED920FFF766
:1034E0008BFEF120FFF788FEDB20FFF785FE302002
:1034F000FFF782FEA420FFF77FFEA620FFF77CFEE9
:103500008D20FFF779FE1420FFF776FEAF20FFF73E
:1035100073FEFFF7A2FE70BD00080140000C0140E1
:10352000EAA200082DE9F05F05460E461446214642
:103530006148006806F0E4FC82463146284606F001
:10354000DCFD83465D480168584606F0D9FC81469B
:10355000514606F0D5FA804606F036FC0746384656
:10356000BDE8F09F2DE9F74F84B00D46164654484C
:103570000078012805D100205249086007B0BDE855
:10358000F08F049806F05CFC03904F4801684FF000
:10359000804006F0B5FC4D49019006F01FFB8346C4
:1035A000A81906F04DFC019049480168019806F001
:1035B000A7FA5946029006F0ABFD824645480168DD
:1035C000504606F09DFC8146039906F0A1FD074692
:1035D000414801684148006806F092FC82463F4835
:1035E00001684FF07E5006F093FD8346394606F0A1
:1035F00087FC8146514606F083FA0446364804604B
:103600003048006806F01CFC8246214606F078FA35
:10361000814606F0D9FB2B49086008460068B0F5E2
:10362000FA6F02DD4FF4FA6008602648006810F572
:10363000FA6F02DA2A48234908602248006806F037
:10364000FFFB834627480168584606F059FC81462F
:1036500025480168204606F053FC8246494606F09C
:103660004FFA8046404606F0AFFB87E72DE9F05F52
:1036700005460C461D480168284606F041FC824676
:10368000124906F0ABFA8046204606F0D9FB834685
:1036900017480168584606F033FC82460B4906F08D
:1036A0009DFA8146414606F02BFA074606F08CFB50
:1036B00006463046BDE8F09F5C0000205800002020
:1036C00080000020E4000020700000200000C842BC
:1036D0007C00002078000020E0000020E8000020AE
:1036E00030F8FFFF64000020600000206C00002024
:1036F000680000200146002901DA484200E008463F
:10370000704700B503460A46002B07DD0120FA4941
:1037100008600020F949C1F8B00106E00020F64930
:1037200008600120F549C1F8B0011846FFF7E2FF33
:10373000F3490880002A08DD0120EF4908310860BC
:103740000020EE49C1F8B80107E00020EA4908313D
:1037500008600120E949C1F8B8011046FFF7CAFF27
:10376000E7490C39088000BD03461846884200DD51
:103770000846904200DA104670472DE9F04F8FB0AE
:10378000814601F0E0F8DF490860B9F1010F1BD173
:1037900000F0C1FFDC480068DC490860DC49B1F991
:1037A000000006F04DFBDB490860D949B1F904007F
:1037B00006F046FBD8490860D849B1F9040006F084
:1037C0003FFBD749086045E14421D020FFF7ADF920
:1037D00083464321D020FFF7A8F90BEB0020079088
:1037E00006F02EFB04464621D020FFF79EF98346C3
:1037F0004521D020FFF799F90BEB0020079006F048
:103800001FFB80464821D020FFF78FF983464721D0
:10381000D020FFF78AF90BEB0020079006F010FB91
:1038200007463C21D020FFF780F983463B21D0207A
:10383000FFF77BF90BEB0020079006F001FB0A90E5
:103840003E21D020FFF771F983463D21D020FFF7BC
:103850006CF90BEB0020079006F0F2FA0B90402178
:10386000D020FFF762F983463F21D020FFF75DF9B2
:103870000BEB0020079006F0E3FA06464FF08E416E
:10388000204606F009FC05D24FF08F41204606F095
:103890003FFC04464FF08E41404606F0FDFB05D24A
:1038A0004FF08F41404606F033FC80464FF08E418A
:1038B000384606F0F1FB05D24FF08F41384606F04E
:1038C00027FC07464FF08E410A9806F0E5FB05D22B
:1038D0004FF08F410A9806F01BFC0A904FF08E4182
:1038E0000B9806F0D9FB05D24FF08F410B9806F0EC
:1038F0000FFC0B904FF08E41304606F0CDFB05D209
:103900004FF08F41304606F003FC064684F000403D
:10391000804908600A9806F0C7F8824A824BCDE9D0
:10392000040105F01DFCCDE9060105F02BFB0E900E
:103930000B9806F0B9F87B4A7B4BCDE9040105F002
:103940000FFCCDE9060105F01DFB0D90304606F099
:10395000ABF8744A744BCDE9040105F001FCCDE9E4
:10396000060105F00FFB0C90204606F09DF84FF085
:1039700066326E4BCDE9040105F0F2FBCDE906019C
:1039800005F000FB8246404606F08EF84FF06632A6
:10399000664BCDE9040105F0E3FBCDE9060105F036
:1039A000F1FA054662480078022837D18AF00040D3
:1039B00002460190DDE90C1004F00DFA834606F092
:1039C00073F85C4A5C4BCDE9020105F0C9FB0022AB
:1039D0005A4BCDE9040105F057FDCDE9060105F08C
:1039E000D1FA494908602A460C990E9804F040FB28
:1039F000834606F059F84F4A4F4BCDE9020105F0D6
:103A0000AFFB00224D4BCDE9040105F03DFDCDE9B2
:103A1000060105F0B7FA4A49086013E04448007807
:103A200003280FD12146099801F0C9F980F0004020
:103A3000354908604146089801F03EFB80F000409F
:103A40003F490860304800683049086032480760E4
:103A5000334806600FB0BDE8F08F2DE9F0474FF412
:103A60008050FCF733FE012844D136480078002806
:103A700041D13548007801283DD13448006806F02E
:103A800013F80646324A334B05F0C2FC33D83248AD
:103A900032490860002032490880324832490860C3
:103AA0003248334908603348334908603348344961
:103AB00008600020334908603349086033483449BE
:103AC00008600020334908604FF07E50324908609A
:103AD0000020324908601D48006805F0E5FF814676
:103AE0002F4A304B05F080FA064605F04BFA17498D
:103AF00008604BE167E357E0B48121420080214236
:103B0000402C014010000020000100201400002083
:103B1000EC000020180000201C000020F200002013
:103B2000240000208FC2F5285C1F9A40665E8D40FD
:103B300000000020F1D4C853FB21094000806640FA
:103B4000FC00002080000020810000209000002068
:103B500048E17A14AE470340000020418400002071
:103B6000880000200000134458000020E17A14402F
:103B70005C00002000004BC360000020000080BFFC
:103B800064000020680000206C0000200000284233
:103B90007400002070000020780000209C000020AD
:103BA000FCA9F1D24D62503FFE48007850BBFE4860
:103BB0000078012826D1FD48006805F075FF06460B
:103BC000FB4AFC4B05F05EFD1CD2F848006805F08E
:103BD0006BFF06464FF06632F74B05F019FC11D823
:103BE000F248006805F060FF06460022F34B05F03E
:103BF00049FD03D8F248ED490860C7E00020F149CB
:103C00000860C3E0E7480078002872D1E6480078F1
:103C10000228FAD1E548006805F046FF0646002272
:103C2000E94B05F0F5FB2FD80020E8490860E8488B
:103C3000E84908604FF08040E7490860E748E849F4
:103C40000860E848E84908600020E8490860E84959
:103C50000860E8490860DB490860E7490860E7490F
:103C600008804FF07E50E6490860D048006805F0B3
:103C70001BFF0646E34AE44B05F0B6F9814605F022
:103C800081F9CA49086081E04FF08141C748006866
:103C900006F002F92ED8DD48CA490860CC48CD4963
:103CA0000860DB48CC490860CC48CD490860CD4865
:103CB000CD4908600020CD490860CD490860CD4954
:103CC0000860C2490860D348D34908604FF07E506D
:103CD000CB490860B548006805F0E6FE0646C94ACB
:103CE000C94B05F081F9814605F04CF9AF490860F0
:103CF0004CE024E00020B5490860B548B5490860AB
:103D00004FF08040B4490860B448B5490860B548F0
:103D1000B54908600020B5490860B5490860B54953
:103D20000860A8490860B4490860B44908804FF0A9
:103D30007E50B3490860B9489C49086026E09A481B
:103D4000007818BB00209F490860A0490860A0487F
:103D5000A04908604FF080409F4908609F48A049F3
:103D60000860A048A04908600020A0490860A04958
:103D70000860A0490860A0490860A04908804FF089
:103D80007E509F4908600020A3490860864800785B
:103D9000032829D1A24800680B2825D14FF07E5076
:103DA0008849086000209549088089488949086049
:103DB00097488949086089488949086089488A493B
:103DC0000860002089490860894908609548894948
:103DD000086095487D4908604FF07E50884908602A
:103DE00000208D4908602CE06F480078032828D116
:103DF0008B4800680C2824D14FF08040714908603E
:103E000000207E49088072487249086080487249E3
:103E1000086072487249086072487349086000205F
:103E200072490860724908608048724908607E489B
:103E3000664908604FF07E5071490860002076495D
:103E4000086059480078032828D1754800680D2873
:103E500024D14FF081405B49086000206749088009
:103E60005B485C4908606A485B4908605B485C499C
:103E700008605C485C49086000205C4908605C4957
:103E800008606A485B4908600020504908604FF0AC
:103E90007E505B49086000205F4908604248007816
:103EA000032828D15E480068152824D14FF07E50A1
:103EB0004449086000205149088045484549086048
:103EC00053484549086045484549086045484649C2
:103ED0000860002045490860454908605448454944
:103EE00008605148394908604FF07E5044490860E5
:103EF0005048494908602C480078032828D1484890
:103F00000068162824D14FF080402E490860002018
:103F10003A4908802E482F4908603D482E490860DC
:103F20002E482F4908602F482F49086000202F494C
:103F300008602F4908603F482E4908603A482349E5
:103F400008604FF07E502E4908600020324908601A
:103F500015480078032874D131480068172870D1BB
:103F60004FF0814017490860002024490880184814
:103F70001849086026481849086018481849086018
:103F80001848194908600020184908601849086055
:103F900026481849086000200C4908604FF07E5000
:103FA00017494AE080000020810000209000002096
:103FB00048E17A14AE47034066661A4000001A4092
:103FC0009A99D140840000200000E03F700000205A
:103FD00000001344580000205C00002000004BC388
:103FE00060000020000080BF640000206800002006
:103FF0006C000020740000207C000020880000205D
:1040000078000020FCA9F1D24D62503F0000C84169
:10401000E17A14400000AFC39C000020333383409A
:10402000A0000020000090410000F0410000A041ED
:10403000000070410000F0C103E00860834884493B
:10404000086084480078032824D1834800681E282B
:1040500020D1002081490860814908608148824957
:1040600008604FF0804081490860814881490860BC
:1040700081488249086000208149086081490860C0
:104080008149086081490860814908804FF07E506D
:104090008049086080480078FFF76FFB0220FEF738
:1040A0005DFB00B27D4908800420FEF757FB4042CB
:1040B00000B27B4908806948006805F085FE064625
:1040C0007748B0F900207548B0F900103046FFF786
:1040D00049FA0546734802687348016873480068E6
:1040E000FFF720FA04466A48018871480068FFF724
:1040F000BDFA804604EB0801481905F0A1FE81468F
:1041000057480168484605F0FBFC07465E480168D1
:10411000384605F0F5FC80F00046304605F054FEC8
:1041200064490860A4EB0801481905F089FE82463D
:104130004B480168504605F0E3FC8146524801684F
:10414000484605F0E5FF074641480168384605F056
:10415000DFFF80F00046304605F036FE5649086025
:10416000564A514253480068FFF7FEFA5149086029
:10417000524A514250480068FFF7F6FA4E4908602B
:104180004F480078012804D100210846FFF7B9FA0A
:1041900006E049480068414246480068FFF7B1FA26
:1041A00048494148006805F077FF05D346493E4835
:1041B000006805F071FE02D20120414908704FF4F9
:1041C0008050FCF794FA4FF48050FCF790FABDE869
:1041D000F0872DE9F04704460D46C82004FB00F6A1
:1041E000F01706EB907080101E2190FBF1F00D216E
:1041F00090FBF1F9484605F023FE0746334938465F
:1042000005F07EFE0646324905F07AFE3149086027
:10421000C82005FB00F6F01706EB907080101E21F9
:1042200090FBF1F00D2190FBF1F9484605F008FEF6
:1042300080462649404605F063FE0646244905F0BF
:104240005FFE25490860BDE8F08700000000A0C2BD
:104250009C00002081000020A0000020840000209D
:104260007000002000001344580000205C00002073
:1042700000004BC360000020000080BF64000020ED
:10428000680000206C000020740000207C000020EA
:104290008800002078000020000000202800002076
:1042A0002A000020180000201400002094000020A4
:1042B0001C000020080000200C0000200CE5FFFF7F
:1042C0008000002000002042000020C2000040408A
:1042D000000086422C00002030000020014691F9A9
:1042E0000020002A01DD00201EE091F90020002AB4
:1042F00001DA042018E091F90120002A01DD0120F3
:1043000012E091F90120002A01DA05200CE091F970
:104310000220002A01DD022006E091F90220002A95
:1043200001DA062000E00720704770B505462846F0
:10433000FFF7D4FF0446E81CFFF7D0FF44EAC000B3
:1043400084B2A81DFFF7CAFF44EA801084B2204659
:1043500070BD70B588B002A905A803F07AFA0446CA
:10436000072C3CD101A802F0E9FC059805F068FD96
:104370000646019905F0C4FD054605F025FD0590AA
:10438000069805F05DFD0646019905F0B9FD054664
:1043900005F01AFD0690079805F052FD06460199B2
:1043A00005F0AEFD054605F00FFD079005A800F0ED
:1043B00060FF684602F0DFFCBDF800100298484339
:1043C0000290BDF80010039848430390BDF8001018
:1043D00004984843049002A800F0DEFF00BF08B034
:1043E00070BD2DE9F04304460D46DDE90767002165
:1043F000012041E0DFF8BCC53CF81080A0F1010CC1
:10440000DFF8B09529F81C8009F1160C3CF81090E3
:10441000A0F1010CDFF89C8508F1160828F81C9023
:1044200008F1160C3CF81090A0F1010C08F11608E8
:1044300028F81C9008F1160C3CF81090A0F1010C23
:1044400008F1160828F81C9008F1160C3CF810909A
:10445000A0F1010C08F1160828F81C9008F1160CC0
:104460003CF81090A0F1010C08F1160828F81C90F7
:1044700000F1010C0CF0FF000A28BBDBDFF834C5AB
:10448000ACF81240ACF82850ACF83E20ACF85430F0
:10449000ACF86A60ACF880700021002008E0DFF81A
:1044A00014C53CF910C0614400F1010C0CF0FF0090
:1044B0000A28F4DB4FF00A0C91FBFCFC0FFA8CFC91
:1044C000DFF8F084A8F814C0002100200AE0DFF82B
:1044D000E4C40CF1160C3CF910C0614400F1010C6D
:1044E0000CF0FF000A28F2DB4FF00A0C91FBFCFCF9
:1044F0000FFA8CF8DFF8BCC4ACF82A800021002049
:104500000AE0DFF8B0C40CF12C0C3CF910C0614497
:1045100000F1010C0CF0FF000A28F2DB4FF00A0C4E
:1045200091FBFCFC0FFA8CF8DFF888C4ACF84080F3
:10453000002100200AE0DFF87CC40CF1420C3CF9B9
:1045400010C0614400F1010C0CF0FF000A28F2DBFE
:104550004FF00A0C91FBFCFC0FFA8CF8DFF854C406
:10456000ACF85680002100200AE0DFF848C40CF1C6
:10457000580C3CF910C0614400F1010C0CF0FF0034
:104580000A28F2DB4FF00A0C91FBFCFC0FFA8CF8C6
:10459000DFF820C4ACF86C80002100200AE0DFF8CE
:1045A00014C40CF16E0C3CF910C0614400F1010C14
:1045B0000CF0FF000A28F2DB4FF00A0C91FBFCFC28
:1045C0000FFA8CF8DFF8ECC3ACF88280BDE8F0831A
:1045D00038B50446032302226B21D0200094FEF755
:1045E00037FB38BD38B50446022304221B21D020F6
:1045F0000094FEF72DFB38BD38B504460223042293
:104600001C21D0200094FEF723FB38BD10B50446D2
:10461000234606226B21D020FEF74FFB10BD10B5BC
:10462000E54B01227521D020FEF7A2FAE24800787E
:1046300010BD10B5FFF7F3FF682801D1012010BDB0
:104640000020FCE710B50446234605226A21D0204D
:10465000FEF733FB10BD10B5044623460122372177
:10466000D020FEF72AFB10BD10B50220FFF7B0FFE7
:104670000320FFF7B7FF0020FFF7BEFF0020FFF782
:10468000C5FF0020FFF7DEFF0020FFF7E4FF10BDAD
:1046900038B5002000900120C84908706B460122FF
:1046A00075216820FEF706FA9DF8000068280ED0F4
:1046B00000BFC348006800F4E060C2490843001D21
:1046C000BF490860BFF34F8F00BF00BFFEE702F095
:1046D00042F8E0B9782001F0A6FC782001F08AFECB
:1046E000C82001F068FF00F029FDB748FFF71DFE64
:1046F000044600F02DFD40F2731001F06AF9C82065
:1047000000F0E0FEFFF725FE012003F05DF8002039
:10471000AA49087038BD2DE9F04F8FB00CA8AB49FD
:104720000DAB08AACDE90010A949AA4801F0B0FADA
:10473000A648008800F4807000287DD0089805F015
:104740007FFB04464FF09D4105F048FAA2490860FE
:10475000099805F075FB04464FF09D4105F03EFABF
:104760009E4908600A9805F06BFB04464FF09D4196
:1047700005F034FA9A4908600B9805F061FB04468D
:104780004FF09D4105F02AFA964908609248016869
:104790004FF0804005F0B4FB069091480168069800
:1047A00005F0AEFB82468D4801684FF0404005F0B1
:1047B000A7FB06908B480168069805F0A1FB83468D
:1047C000514605F09DF9079005F06EF9804604F01A
:1047D000ABF806464FF06632834B04F055FE0446B4
:1047E00004F0D0FB814908607D4801684FF08040AB
:1047F00005F086FB03907A480168039805F080FB7A
:104800008246764801684FF0404005F079FB0390FE
:1048100072480168039805F073FB8346514605F022
:1048200077FC81464FF07E5105F06AF9044605F0A9
:104830003BF9CDE9040100E082E0674801684FF0F0
:10484000804005F05DFB834664480168584605F0EA
:1048500057FB8146624801684FF0804005F050FBED
:10486000834660480168584605F04AFB824649463F
:1048700005F046F9044605F017F90746DDE904237B
:1048800004F09AFA4FF06632574BCDE9060104F076
:10489000FBFD054604F076FB554908605148016868
:1048A000006805F02DFB03904D480168006805F095
:1048B00027FB029049480168006805F021FB834608
:1048C00045480168006805F01BFB5946019005F05A
:1048D00017F98246029905F01BFC8146039905F001
:1048E00017FC044605F0E0F8CDE904013D480168F5
:1048F0003948006805F004FB8246394801683748AA
:10490000006805F0FDFA8346514605F0F9F8814646
:104910004FF0804105F0F4FA044605F0C5F807466B
:10492000DDE9042304F048FA4FF066322E4BCDE95E
:10493000060104F0A9FD054604F024FB2D4908609A
:104940000FB0BDE8F08F2DE9F05F4221D020FEF7D7
:10495000ECF805464121D020FEF7E7F805EB0024EE
:10496000204605F06DFA82464FF08E41504605F024
:1049700093FB05D24FF08F41504605F0C9FB8246AC
:104980001D49504605F02AF9834605F08DF880460A
:104990001A4A1B4B04F028FB06460022194B04F070
:1049A00073FD044604F0EEFA8246504605F00CFA18
:1049B000BDE8F09F360200202802002002000020FF
:1049C0000CED00E00000FA0518010020F8000020BE
:1049D000F2000020EC000020080100200C01002063
:1049E000100100201401002066A64C40FC000020AD
:1049F00000010020040100200000AA43A4703D0A29
:104A0000D74342400000244070B549A20121084626
:104A1000FEF76FFC05234A48B0F90020012102206F
:104A2000FEF7A7FC05234748B0F900200721022024
:104A3000FEF79FFC44494548006805F061FA0646C8
:104A4000434905F065FB054605F0BEF9044605231C
:104A5000224601210320FEF78CFC3B493D480068BB
:104A600005F04EFA06463C4905F04AF8054605F0C1
:104A7000ABF904460823224601210420FEF779FC05
:104A800070BD70B535A201210846FEF732FC012346
:104A90003448027806211846FEF749FC05232848C9
:104AA000B0F9002001210220FEF763FC05232E4807
:104AB000027807210220FEF75CFC234923480068A6
:104AC00005F01EFA054605F07FF904460523224647
:104AD00001210320FEF74DFC1B492448006805F026
:104AE0000FFA054605F070F9044605232246072112
:104AF0000320FEF73EFC1E491E48006805F000FA40
:104B0000054605F061F904460823224601210420E8
:104B1000FEF72FFC70BD10B517A201210846FEF765
:104B2000E8FB18A201210220FEF7E3FB10BD000004
:104B3000477A696C612042616C4361720000000039
:104B4000280000202A0000200000C8421400002095
:104B5000000070421C00002000C028454D6F6465B5
:104B60003A00000081000020D8000020180000203A
:104B700000007A4490000020536C656570204E6FF1
:104B8000770000005042757430744F4E00000000F2
:104B90002DE9F05F05460C46FD4EFE4F4FF07C5868
:104BA0004FF00109FC480168204605F0B1FA834640
:104BB000FA480168584605F0A3F98246F8480168AA
:104BC000504604F09DFFF6490860F64841683046BB
:104BD00005F09EFA8246F3488168504605F098FA3F
:104BE000F1490860EF48C06880F000404860ED4837
:104BF000C06880F0004088600846C7600868E749E0
:104C0000096805F07DF98246E6480168504604F0DF
:104C100077FFE4490860E4494868E049096805F01D
:104C20006FF98246DF484168504604F069FFDD496C
:104C30004860DD498868D949096805F061F982460C
:104C4000D8488168504604F05BFFD6498860D64951
:104C5000C868D249096805F053F98246D148C1684D
:104C6000504604F04DFFCF49C860CD480168284642
:104C700005F04EFACD490860484605F0F9F882463D
:104C8000C8480168504605F03BF9C94908604846E4
:104C900005F0EEF88246C3488168504605F030F9C9
:104CA000C4490860484605F0E3F88346C0480168F7
:104CB000584605F025F98246414604F021FFBE49D9
:104CC000086008460168BA48006804F087FFBB49DD
:104CD0000860B9480168B748006804F07FFFB84928
:104CE0000860B3480068B7490860484605F0C0F856
:104CF0008246AC484168504605F002F9B249086066
:104D0000B0480168AD48006805F0FAF88246A54849
:104D10000168504605F0F1F9A2490860AA48016807
:104D2000A648006805F0ECF882469E484168504667
:104D300005F0E3F99B494860A2480168A048006873
:104D400005F0DEF8824697488168504605F0D5F9AF
:104D5000944988609C4801689948006805F0D0F83B
:104D600082469048C168504605F0C7F98D49C86031
:104D70008E4801689148006805F0C2F8824688486C
:104D80000168504604F0BCFE854908608748016808
:104D90008B48006805F0B4F882467F4801685046A9
:104DA00004F0AEFE7C49086008460168204605F024
:104DB000AFF9864908607A480068BDE8F09F2DE9A0
:104DC000F05F05460C46824E74480168204605F0A7
:104DD00097F883467F480168584604F091FE804664
:104DE00031464FF07E5005F093F98246414605F07A
:104DF00087F807463146284605F082F8814639464D
:104E000004F07EFE7349086008460068BDE8F09F24
:104E10002DE9F05F05460C465D4E5E4F4FF07C5825
:104E20004FF001096C480168204605F071F983468E
:104E30005A480168584605F063F882466748016899
:104E4000504604F05DFE654908606548416830469B
:104E500005F05EF9824662488168504605F058F9CF
:104E6000604908605E48C06880F0004048605C4867
:104E7000C06880F0004088600846C76008684749FD
:104E8000096805F03DF8824655480168504604F02F
:104E900037FE53490860534948684049096805F09E
:104EA0002FF882464E484168504604F029FE4C498E
:104EB00048604C4988683949096805F021F88246FC
:104EC00047488168504604F01BFE454988604549C3
:104ED000C8683249096805F013F882464048C1683D
:104EE000504604F00DFE3E49C8603C480168284623
:104EF00005F00EF93C490860484604F0B9FF8246C7
:104F000037480168504604F0FBFF384908604846BE
:104F100004F0AEFF824632488168504604F0F0FF4C
:104F200033490860484604F0A3FF83462F480168D0
:104F3000584604F0E5FF8246414604F0E1FD2D4964
:104F40000860084601682948006804F047FE2A49BD
:104F50000860284801682648006804F03FFE274999
:104F600008602248006826490860484604F080FF2F
:104F700082461B484168504604F0C2FF2149086040
:104F80001F4801681C48006804F0BAFF82463BE0F5
:104F90006F12833AA69B443B340100202801002075
:104FA0003001002058010020BC0200203801002000
:104FB0003C01002040010020440100204801002065
:104FC0004C01002050010020540100202C01002041
:104FD0000AD7A33C68010020740100207001002062
:104FE00098010020CC020020780100207C010020E4
:104FF0008001002084010020880100208C01002015
:10500000900100209401002040480168504605F0BE
:1050100074F83E4908603E4801683E48006804F064
:105020006FFF824639484168504605F066F83749B7
:105030004860394801683948006804F061FF8246D9
:1050400032488168504605F058F830498860304849
:1050500001683248006804F053FF82462B48C1685B
:10506000504605F04AF82949C8602D48016829488A
:10507000006804F045FF82462A480168504604F063
:105080003FFD28490860264801682448006804F06C
:1050900037FF824624480168504604F031FD22491A
:1050A000086008460168204605F032F81F4908608C
:1050B0001C480068BDE8F09F2DE9F05F05460C46EE
:1050C0001B4E1C480168204604F01AFF83461A480C
:1050D0000168584604F014FD804631464FF07E507A
:1050E00005F016F88246414604F00AFF07463146AD
:1050F000284604F005FF8146394604F001FD0E49BB
:10510000086008460068BDE8F09F00009801002094
:105110009401002088010020900100208C010020D3
:105120007801002070010020740100206C01002033
:105130000AD7A33C28010020A801002010B5C823ED
:105140004FF48062F74940F6F63002F087FC10BD5C
:1051500010B586B00446F4A000680390F3A0006880
:105160000290F3A000680190F2A00068009004F0A3
:10517000030003A9085C8DF8140003A8C4F3C1015F
:10518000405C8DF8150003A8C4F38111405C8DF8D4
:10519000160004F0030002A9085C8DF8100002A8B4
:1051A000C4F3C101405C8DF8110002A8C4F3811161
:1051B000405C8DF8120005AA032140F2264002F05F
:1051C000D3FB18B14FF0FF3006B010BD04AA032185
:1051D00040F22A4002F0C8FB10B14FF0FF30F3E775
:1051E000019805900098049004F0040058B19DF8CF
:1051F000140040F001008DF814009DF8100040F0FC
:1052000001008DF8100004F0200058B19DF8150041
:1052100040F001008DF815009DF8110040F00100EC
:105220008DF8110004F4807058B19DF8160040F01C
:1052300001008DF816009DF8120040F001008DF875
:10524000120005AA03214FF4886002F08DFB10B113
:105250004FF0FF30B8E704AA032140F2314002F0DA
:1052600083FB10B14FF0FF30AEE7B348048100205C
:10527000AAE71FB50446B048007A00F0030054F8CE
:1052800020000190AC48007A00F0040010B10198B1
:1052900040420190A848007AC0F3C10054F82000B1
:1052A0000290A548007A00F0200010B10298404218
:1052B0000290A148007AC0F3811054F820000390B6
:1052C0009D48008900F4807010B10398404203901B
:1052D0009A49019880FB0101800F40EA810001900A
:1052E0009649029880FB0110820042EA9170029078
:1052F0009249039880FB0110820042EA917003906A
:105300000198000E8DF800000198000C8DF8010046
:105310000198000A8DF802000198C0B28DF80300D0
:105320006A4604214FF4747002F01EFB18B14FF06E
:10533000FF3004B010BD0298000E8DF800000298F6
:10534000000C8DF801000298000A8DF80200029806
:10535000C0B28DF803006A4604214FF4757002F064
:1053600003FB10B14FF0FF30E3E70398000E8DF818
:1053700000000398000C8DF801000398000A8DF8D6
:1053800002000398C0B28DF803006A4604214FF46E
:10539000767002F0E9FACCE770B588B0064601A84D
:1053A00001F0E9FCBDF804000021C90341EA5045C1
:1053B000C4036148007A00F0030056F8200005900D
:1053C0005D48007A00F0040010B105984042059055
:1053D0005948007AC0F3C10056F82000069056489C
:1053E000007A00F0200010B1069840420690524822
:1053F000007AC0F3811056F8200007904E480089CB
:1054000000F4807010B10798404207900598C117CA
:10541000A0FB042301FB043100FB0510810041EADD
:10542000927005900698C117A0FB042301FB04317C
:1054300000FB0510810041EA927006900798C117A1
:10544000A0FB042301FB043100FB0510810041EAAD
:10545000927007900598000E8DF808000598000CD2
:105460008DF809000598000A8DF80A000598C0B269
:105470008DF80B000698000E8DF80C000698000CB5
:105480008DF80D000698000A8DF80E000698C0B23F
:105490008DF80F000798000E8DF810000798000C8B
:1054A0008DF811000798000A8DF812000798C0B215
:1054B0008DF8130002AA0C214FF4257002F054FA63
:1054C00008B070BD30B585B004461DA207CA02AB56
:1054D00007C3C82C03DD4FF0FF3005B030BDC82036
:1054E00090FBF4F0401E85B2280A8DF80000E8B267
:1054F0008DF801006A46022140F2162002F034FACB
:1055000010B14FF0FF30E8E702AA0C2140F6C120AD
:1055100002F02AFA10B14FF0FF30DEE7064884812E
:105520000020DAE7DAA800084CCD6C000CC92C008A
:105530003656760026466600DC02002009E3CA02E1
:10554000FEF2ABC4AAF1DFDFBBAFDFDF0146FC48F0
:1055500080890880002070472DE9FC4706460F46E9
:1055600006F0070010B1B7F5C86F03DD4FF0FF304C
:10557000BDE8FC87384604F07BFC8146F14904F025
:105580002DFB8046684601F07AFB9DF8000002285A
:1055900006D0042816D0082826D0102848D135E097
:1055A0004FF08D41404604F0ABFC814604F028FCEE
:1055B00084B2E549404604F0A3FC814604F020FC97
:1055C00085B238E04FF08C41404604F099FC8146AA
:1055D00004F016FC84B2DD49404604F091FC81469B
:1055E00004F00EFC85B226E04FF08B41404604F0FB
:1055F00087FC814604F004FC84B2D549404604F09F
:105600007FFC814604F0FCFB85B214E04FF08A4138
:10561000404604F075FC814604F0F2FB84B2CD49AB
:10562000404604F06DFC814604F0EAFB85B202E0DE
:105630004FF0FF309CE700BF20128DF80400E0B26D
:105640008DF8050028128DF80600E8B28DF80700E5
:1056500006F00100A0B101AA02214FF4EA7002F0A5
:1056600083F910B14FF0FF3082E70DF106020221FD
:105670004FF4927002F078F910B14FF0FF3077E7F5
:1056800006F00200A0B101AA02214FF4EC7002F072
:105690006BF910B14FF0FF306AE70DF106020221FD
:1056A0004FF4947002F060F910B14FF0FF305FE7F3
:1056B00006F00400A0B101AA02214FF4EE7002F03E
:1056C00053F910B14FF0FF3052E70DF106020221FD
:1056D0004FF4967002F048F910B14FF0FF3047E7F1
:1056E000002045E738B504460020009004F0010092
:1056F00020B19DF8000040F03000009004F002005E
:1057000020B19DF8000040F00C00009004F004006F
:1057100020B19DF8000040F0030000906A4601218E
:105720004FF4A47002F020F938BD38B50446012CBE
:1057300001DA012402E0042C00DD0424601EC0B262
:1057400000906A46012140F24F1002F00DF938BD79
:1057500038B50446052094FBF0F085B228128DF888
:105760000000E8B28DF801006A4602214FF4EF70A4
:1057700002F0FAF838BD38B50446052094FBF0F085
:1057800085B228128DF80000E8B28DF801006A4653
:1057900002214FF4ED7002F0E7F838BDF8B5054688
:1057A0000E464FF47A7095FBF0F000FB06F4200EE5
:1057B0008DF80000200C8DF80100200A8DF8020001
:1057C000E0B28DF803006A4604214FF4AE7002F097
:1057D000CBF8F8BD38B50446052094FBF0F084B250
:1057E00020128DF80000E0B28DF801006A46022117
:1057F0004FF4AD7002F0B8F838BD38B50446052056
:1058000094FBF0F084B220128DF80000E0B28DF825
:1058100001006A4602214FF4AC7002F0A5F838BDD1
:1058200038B5044614B94FF0FF3038BD6A4604213C
:105830004FF4587002F0D5F810B14FF0FF30F4E794
:105840009DF8000000069DF8011040EA01409DF817
:10585000021040EA01209DF8031008432060002058
:10586000E3E738B50446200E8DF80000200C8DF8D3
:105870000100200A8DF80200E0B28DF803006A46AC
:1058800004214FF4587002F06FF838BD38B5044663
:1058900014B94FF0FF3038BD6A4604214FF47170DF
:1058A00002F09FF810B14FF0FF30F4E79DF80000D0
:1058B00000069DF8011040EA01409DF8021040EA00
:1058C00001209DF80310084300EB80008000206059
:1058D0000020E0E738B504461420B4FBF0F4200EB5
:1058E0008DF80000200C8DF80100200A8DF80200D0
:1058F000E0B28DF803006A4604214FF4717002F0A3
:1059000033F838BD38B5044664B120208DF8000066
:1059100028208DF8010030208DF8020038208DF805
:10592000030004E0A3220421684602F0EBFD6A466E
:10593000042140F69E2002F017F800F07DFC38BDEF
:10594000DC02002000004843000040460000C04543
:10595000000040450000C04438B5044664B1C02092
:105960008DF80000C2208DF80100C4208DF80200DF
:10597000C6208DF8030004E08B220421684602F063
:10598000C1FD6A46042140F6982001F0EDFF00F0C9
:1059900053FC38BD3EB504466CB1FDA1D1E90020F1
:1059A0008968CDE9002002916A4609214FF4976089
:1059B00001F0DAFF3EBDF9A2D2E900109268CDE90C
:1059C000010200916A4609214FF4976001F0CCFF73
:1059D000F0E73EB5044602208DF80000CA208DF89D
:1059E0000100E3208DF8020009208DF803006A46CB
:1059F0000421682001F0B8FFA3208DF8000004F016
:105A0000400048B1C0208DF80100C8208DF8020088
:105A1000C2208DF8030006E0A3208DF801008DF868
:105A200002008DF8030004F4C07048B1C4208DF862
:105A30000400CC208DF80500C6208DF8060006E095
:105A4000A3208DF804008DF805008DF80600A32032
:105A50008DF807008DF808008DF809006A460A21C4
:105A600040F6A72001F080FF04F0030018B12020C9
:105A70008DF8000002E0D8208DF800006A46012170
:105A800040F6B62001F070FF04F0200018B10120AC
:105A9000FFF780FF02E00020FFF77CFF04F4C070F6
:105AA00008B304F4807060B1B2208DF800008B2040
:105AB0008DF80100B6208DF802009B208DF80300C0
:105AC0000BE0B0208DF8000080208DF80100B4209C
:105AD0008DF8020090208DF803006A46042140F6FC
